{
  "_format": "hh-sol-artifact-1",
  "contractName": "NexToken",
  "sourceName": "contracts/NexToken.sol",
  "abi": [
    {
      "inputs": [],
      "stateMutability": "nonpayable",
      "type": "constructor"
    },
    {
      "inputs": [
        {
          "internalType": "address",
          "name": "spender",
          "type": "address"
        },
        {
          "internalType": "uint256",
          "name": "allowance",
          "type": "uint256"
        },
        {
          "internalType": "uint256",
          "name": "needed",
          "type": "uint256"
        }
      ],
      "name": "ERC20InsufficientAllowance",
      "type": "error"
    },
    {
      "inputs": [
        {
          "internalType": "address",
          "name": "sender",
          "type": "address"
        },
        {
          "internalType": "uint256",
          "name": "balance",
          "type": "uint256"
        },
        {
          "internalType": "uint256",
          "name": "needed",
          "type": "uint256"
        }
      ],
      "name": "ERC20InsufficientBalance",
      "type": "error"
    },
    {
      "inputs": [
        {
          "internalType": "address",
          "name": "approver",
          "type": "address"
        }
      ],
      "name": "ERC20InvalidApprover",
      "type": "error"
    },
    {
      "inputs": [
        {
          "internalType": "address",
          "name": "receiver",
          "type": "address"
        }
      ],
      "name": "ERC20InvalidReceiver",
      "type": "error"
    },
    {
      "inputs": [
        {
          "internalType": "address",
          "name": "sender",
          "type": "address"
        }
      ],
      "name": "ERC20InvalidSender",
      "type": "error"
    },
    {
      "inputs": [
        {
          "internalType": "address",
          "name": "spender",
          "type": "address"
        }
      ],
      "name": "ERC20InvalidSpender",
      "type": "error"
    },
    {
      "inputs": [
        {
          "internalType": "address",
          "name": "owner",
          "type": "address"
        }
      ],
      "name": "OwnableInvalidOwner",
      "type": "error"
    },
    {
      "inputs": [
        {
          "internalType": "address",
          "name": "account",
          "type": "address"
        }
      ],
      "name": "OwnableUnauthorizedAccount",
      "type": "error"
    },
    {
      "anonymous": false,
      "inputs": [
        {
          "indexed": true,
          "internalType": "address",
          "name": "owner",
          "type": "address"
        },
        {
          "indexed": true,
          "internalType": "address",
          "name": "spender",
          "type": "address"
        },
        {
          "indexed": false,
          "internalType": "uint256",
          "name": "value",
          "type": "uint256"
        }
      ],
      "name": "Approval",
      "type": "event"
    },
    {
      "anonymous": false,
      "inputs": [
        {
          "indexed": true,
          "internalType": "address",
          "name": "previousOwner",
          "type": "address"
        },
        {
          "indexed": true,
          "internalType": "address",
          "name": "newOwner",
          "type": "address"
        }
      ],
      "name": "OwnershipTransferred",
      "type": "event"
    },
    {
      "anonymous": false,
      "inputs": [
        {
          "indexed": true,
          "internalType": "address",
          "name": "from",
          "type": "address"
        },
        {
          "indexed": true,
          "internalType": "address",
          "name": "to",
          "type": "address"
        },
        {
          "indexed": false,
          "internalType": "uint256",
          "name": "value",
          "type": "uint256"
        }
      ],
      "name": "Transfer",
      "type": "event"
    },
    {
      "inputs": [
        {
          "internalType": "address",
          "name": "owner",
          "type": "address"
        },
        {
          "internalType": "address",
          "name": "spender",
          "type": "address"
        }
      ],
      "name": "allowance",
      "outputs": [
        {
          "internalType": "uint256",
          "name": "",
          "type": "uint256"
        }
      ],
      "stateMutability": "view",
      "type": "function"
    },
    {
      "inputs": [
        {
          "internalType": "address",
          "name": "spender",
          "type": "address"
        },
        {
          "internalType": "uint256",
          "name": "value",
          "type": "uint256"
        }
      ],
      "name": "approve",
      "outputs": [
        {
          "internalType": "bool",
          "name": "",
          "type": "bool"
        }
      ],
      "stateMutability": "nonpayable",
      "type": "function"
    },
    {
      "inputs": [
        {
          "internalType": "address",
          "name": "account",
          "type": "address"
        }
      ],
      "name": "balanceOf",
      "outputs": [
        {
          "internalType": "uint256",
          "name": "",
          "type": "uint256"
        }
      ],
      "stateMutability": "view",
      "type": "function"
    },
    {
      "inputs": [
        {
          "internalType": "address",
          "name": "to",
          "type": "address"
        },
        {
          "internalType": "uint256",
          "name": "amount",
          "type": "uint256"
        }
      ],
      "name": "buyToken",
      "outputs": [],
      "stateMutability": "nonpayable",
      "type": "function"
    },
    {
      "inputs": [],
      "name": "decimals",
      "outputs": [
        {
          "internalType": "uint8",
          "name": "",
          "type": "uint8"
        }
      ],
      "stateMutability": "view",
      "type": "function"
    },
    {
      "inputs": [],
      "name": "name",
      "outputs": [
        {
          "internalType": "string",
          "name": "",
          "type": "string"
        }
      ],
      "stateMutability": "view",
      "type": "function"
    },
    {
      "inputs": [],
      "name": "owner",
      "outputs": [
        {
          "internalType": "address",
          "name": "",
          "type": "address"
        }
      ],
      "stateMutability": "view",
      "type": "function"
    },
    {
      "inputs": [],
      "name": "renounceOwnership",
      "outputs": [],
      "stateMutability": "nonpayable",
      "type": "function"
    },
    {
      "inputs": [
        {
          "internalType": "address",
          "name": "to",
          "type": "address"
        },
        {
          "internalType": "uint256",
          "name": "amount",
          "type": "uint256"
        }
      ],
      "name": "sellToken",
      "outputs": [],
      "stateMutability": "nonpayable",
      "type": "function"
    },
    {
      "inputs": [],
      "name": "symbol",
      "outputs": [
        {
          "internalType": "string",
          "name": "",
          "type": "string"
        }
      ],
      "stateMutability": "view",
      "type": "function"
    },
    {
      "inputs": [],
      "name": "totalSupply",
      "outputs": [
        {
          "internalType": "uint256",
          "name": "",
          "type": "uint256"
        }
      ],
      "stateMutability": "view",
      "type": "function"
    },
    {
      "inputs": [
        {
          "internalType": "address",
          "name": "to",
          "type": "address"
        },
        {
          "internalType": "uint256",
          "name": "value",
          "type": "uint256"
        }
      ],
      "name": "transfer",
      "outputs": [
        {
          "internalType": "bool",
          "name": "",
          "type": "bool"
        }
      ],
      "stateMutability": "nonpayable",
      "type": "function"
    },
    {
      "inputs": [
        {
          "internalType": "address",
          "name": "from",
          "type": "address"
        },
        {
          "internalType": "address",
          "name": "to",
          "type": "address"
        },
        {
          "internalType": "uint256",
          "name": "value",
          "type": "uint256"
        }
      ],
      "name": "transferFrom",
      "outputs": [
        {
          "internalType": "bool",
          "name": "",
          "type": "bool"
        }
      ],
      "stateMutability": "nonpayable",
      "type": "function"
    },
    {
      "inputs": [
        {
          "internalType": "address",
          "name": "newOwner",
          "type": "address"
        }
      ],
      "name": "transferOwnership",
      "outputs": [],
      "stateMutability": "nonpayable",
      "type": "function"
    }
  ],
  "bytecode": "0x60806040523480156200001157600080fd5b50336040518060400160405280600781526020017f4e657862697a6e000000000000000000000000000000000000000000000000008152506040518060400160405280600381526020017f4e45580000000000000000000000000000000000000000000000000000000000815250816003908162000090919062000472565b508060049081620000a2919062000472565b505050600073ffffffffffffffffffffffffffffffffffffffff168173ffffffffffffffffffffffffffffffffffffffff16036200011a5760006040517f1e4fbdf70000000000000000000000000000000000000000000000000000000081526004016200011191906200059e565b60405180910390fd5b6200012b816200013260201b60201c565b50620005bb565b6000600560009054906101000a900473ffffffffffffffffffffffffffffffffffffffff16905081600560006101000a81548173ffffffffffffffffffffffffffffffffffffffff021916908373ffffffffffffffffffffffffffffffffffffffff1602179055508173ffffffffffffffffffffffffffffffffffffffff168173ffffffffffffffffffffffffffffffffffffffff167f8be0079c531659141344cd1fd0a4f28419497f9722a3daafe3b4186f6b6457e060405160405180910390a35050565b600081519050919050565b7f4e487b7100000000000000000000000000000000000000000000000000000000600052604160045260246000fd5b7f4e487b7100000000000000000000000000000000000000000000000000000000600052602260045260246000fd5b600060028204905060018216806200027a57607f821691505b60208210810362000290576200028f62000232565b5b50919050565b60008190508160005260206000209050919050565b60006020601f8301049050919050565b600082821b905092915050565b600060088302620002fa7fffffffffffffffffffffffffffffffffffffffffffffffffffffffffffffffff82620002bb565b620003068683620002bb565b95508019841693508086168417925050509392505050565b6000819050919050565b6000819050919050565b6000620003536200034d62000347846200031e565b62000328565b6200031e565b9050919050565b6000819050919050565b6200036f8362000332565b620003876200037e826200035a565b848454620002c8565b825550505050565b600090565b6200039e6200038f565b620003ab81848462000364565b505050565b5b81811015620003d357620003c760008262000394565b600181019050620003b1565b5050565b601f8211156200042257620003ec8162000296565b620003f784620002ab565b8101602085101562000407578190505b6200041f6200041685620002ab565b830182620003b0565b50505b505050565b600082821c905092915050565b6000620004476000198460080262000427565b1980831691505092915050565b600062000462838362000434565b9150826002028217905092915050565b6200047d82620001f8565b67ffffffffffffffff81111562000499576200049862000203565b5b620004a5825462000261565b620004b2828285620003d7565b600060209050601f831160018114620004ea5760008415620004d5578287015190505b620004e1858262000454565b86555062000551565b601f198416620004fa8662000296565b60005b828110156200052457848901518255600182019150602085019450602081019050620004fd565b8683101562000544578489015162000540601f89168262000434565b8355505b6001600288020188555050505b505050505050565b600073ffffffffffffffffffffffffffffffffffffffff82169050919050565b6000620005868262000559565b9050919050565b620005988162000579565b82525050565b6000602082019050620005b560008301846200058d565b92915050565b6114ba80620005cb6000396000f3fe608060405234801561001057600080fd5b50600436106100ea5760003560e01c8063715018a61161008c578063a9059cbb11610066578063a9059cbb1461023b578063dd62ed3e1461026b578063f2fde38b1461029b578063f464e7db146102b7576100ea565b8063715018a6146101f55780638da5cb5b146101ff57806395d89b411461021d576100ea565b806323b872dd116100c857806323b872dd1461015b578063313ce5671461018b57806368f8fc10146101a957806370a08231146101c5576100ea565b806306fdde03146100ef578063095ea7b31461010d57806318160ddd1461013d575b600080fd5b6100f76102d3565b6040516101049190610f7e565b60405180910390f35b61012760048036038101906101229190611039565b610365565b6040516101349190611094565b60405180910390f35b610145610388565b60405161015291906110be565b60405180910390f35b610175600480360381019061017091906110d9565b610392565b6040516101829190611094565b60405180910390f35b6101936103c1565b6040516101a09190611148565b60405180910390f35b6101c360048036038101906101be9190611039565b6103ca565b005b6101df60048036038101906101da9190611163565b61041b565b6040516101ec91906110be565b60405180910390f35b6101fd610463565b005b610207610477565b604051610214919061119f565b60405180910390f35b6102256104a1565b6040516102329190610f7e565b60405180910390f35b61025560048036038101906102509190611039565b610533565b6040516102629190611094565b60405180910390f35b610285600480360381019061028091906111ba565b610556565b60405161029291906110be565b60405180910390f35b6102b560048036038101906102b09190611163565b6105dd565b005b6102d160048036038101906102cc9190611039565b610663565b005b6060600380546102e290611229565b80601f016020809104026020016040519081016040528092919081815260200182805461030e90611229565b801561035b5780601f106103305761010080835404028352916020019161035b565b820191906000526020600020905b81548152906001019060200180831161033e57829003601f168201915b5050505050905090565b6000806103706106ff565b905061037d818585610707565b600191505092915050565b6000600254905090565b60008061039d6106ff565b90506103aa858285610719565b6103b58585856107ad565b60019150509392505050565b60006012905090565b6000811161040d576040517f08c379a0000000000000000000000000000000000000000000000000000000008152600401610404906112cc565b60405180910390fd5b61041782826108a1565b5050565b60008060008373ffffffffffffffffffffffffffffffffffffffff1673ffffffffffffffffffffffffffffffffffffffff168152602001908152602001600020549050919050565b61046b610923565b61047560006109aa565b565b6000600560009054906101000a900473ffffffffffffffffffffffffffffffffffffffff16905090565b6060600480546104b090611229565b80601f01602080910402602001604051908101604052809291908181526020018280546104dc90611229565b80156105295780601f106104fe57610100808354040283529160200191610529565b820191906000526020600020905b81548152906001019060200180831161050c57829003601f168201915b5050505050905090565b60008061053e6106ff565b905061054b8185856107ad565b600191505092915050565b6000600160008473ffffffffffffffffffffffffffffffffffffffff1673ffffffffffffffffffffffffffffffffffffffff16815260200190815260200160002060008373ffffffffffffffffffffffffffffffffffffffff1673ffffffffffffffffffffffffffffffffffffffff16815260200190815260200160002054905092915050565b6105e5610923565b600073ffffffffffffffffffffffffffffffffffffffff168173ffffffffffffffffffffffffffffffffffffffff16036106575760006040517f1e4fbdf700000000000000000000000000000000000000000000000000000000815260040161064e919061119f565b60405180910390fd5b610660816109aa565b50565b600081116106a6576040517f08c379a000000000000000000000000000000000000000000000000000000000815260040161069d9061135e565b60405180910390fd5b806106b08361041b565b10156106f1576040517f08c379a00000000000000000000000000000000000000000000000000000000081526004016106e8906113ca565b60405180910390fd5b6106fb8282610a70565b5050565b600033905090565b6107148383836001610af2565b505050565b60006107258484610556565b90507fffffffffffffffffffffffffffffffffffffffffffffffffffffffffffffffff81146107a75781811015610797578281836040517ffb8f41b200000000000000000000000000000000000000000000000000000000815260040161078e939291906113ea565b60405180910390fd5b6107a684848484036000610af2565b5b50505050565b600073ffffffffffffffffffffffffffffffffffffffff168373ffffffffffffffffffffffffffffffffffffffff160361081f5760006040517f96c6fd1e000000000000000000000000000000000000000000000000000000008152600401610816919061119f565b60405180910390fd5b600073ffffffffffffffffffffffffffffffffffffffff168273ffffffffffffffffffffffffffffffffffffffff16036108915760006040517fec442f05000000000000000000000000000000000000000000000000000000008152600401610888919061119f565b60405180910390fd5b61089c838383610cc9565b505050565b600073ffffffffffffffffffffffffffffffffffffffff168273ffffffffffffffffffffffffffffffffffffffff16036109135760006040517fec442f0500000000000000000000000000000000000000000000000000000000815260040161090a919061119f565b60405180910390fd5b61091f60008383610cc9565b5050565b61092b6106ff565b73ffffffffffffffffffffffffffffffffffffffff16610949610477565b73ffffffffffffffffffffffffffffffffffffffff16146109a85761096c6106ff565b6040517f118cdaa700000000000000000000000000000000000000000000000000000000815260040161099f919061119f565b60405180910390fd5b565b6000600560009054906101000a900473ffffffffffffffffffffffffffffffffffffffff16905081600560006101000a81548173ffffffffffffffffffffffffffffffffffffffff021916908373ffffffffffffffffffffffffffffffffffffffff1602179055508173ffffffffffffffffffffffffffffffffffffffff168173ffffffffffffffffffffffffffffffffffffffff167f8be0079c531659141344cd1fd0a4f28419497f9722a3daafe3b4186f6b6457e060405160405180910390a35050565b600073ffffffffffffffffffffffffffffffffffffffff168273ffffffffffffffffffffffffffffffffffffffff1603610ae25760006040517f96c6fd1e000000000000000000000000000000000000000000000000000000008152600401610ad9919061119f565b60405180910390fd5b610aee82600083610cc9565b5050565b600073ffffffffffffffffffffffffffffffffffffffff168473ffffffffffffffffffffffffffffffffffffffff1603610b645760006040517fe602df05000000000000000000000000000000000000000000000000000000008152600401610b5b919061119f565b60405180910390fd5b600073ffffffffffffffffffffffffffffffffffffffff168373ffffffffffffffffffffffffffffffffffffffff1603610bd65760006040517f94280d62000000000000000000000000000000000000000000000000000000008152600401610bcd919061119f565b60405180910390fd5b81600160008673ffffffffffffffffffffffffffffffffffffffff1673ffffffffffffffffffffffffffffffffffffffff16815260200190815260200160002060008573ffffffffffffffffffffffffffffffffffffffff1673ffffffffffffffffffffffffffffffffffffffff168152602001908152602001600020819055508015610cc3578273ffffffffffffffffffffffffffffffffffffffff168473ffffffffffffffffffffffffffffffffffffffff167f8c5be1e5ebec7d5bd14f71427d1e84f3dd0314c0f7b2291e5b200ac8c7c3b92584604051610cba91906110be565b60405180910390a35b50505050565b600073ffffffffffffffffffffffffffffffffffffffff168373ffffffffffffffffffffffffffffffffffffffff1603610d1b578060026000828254610d0f9190611450565b92505081905550610dee565b60008060008573ffffffffffffffffffffffffffffffffffffffff1673ffffffffffffffffffffffffffffffffffffffff16815260200190815260200160002054905081811015610da7578381836040517fe450d38c000000000000000000000000000000000000000000000000000000008152600401610d9e939291906113ea565b60405180910390fd5b8181036000808673ffffffffffffffffffffffffffffffffffffffff1673ffffffffffffffffffffffffffffffffffffffff16815260200190815260200160002081905550505b600073ffffffffffffffffffffffffffffffffffffffff168273ffffffffffffffffffffffffffffffffffffffff1603610e375780600260008282540392505081905550610e84565b806000808473ffffffffffffffffffffffffffffffffffffffff1673ffffffffffffffffffffffffffffffffffffffff168152602001908152602001600020600082825401925050819055505b8173ffffffffffffffffffffffffffffffffffffffff168373ffffffffffffffffffffffffffffffffffffffff167fddf252ad1be2c89b69c2b068fc378daa952ba7f163c4a11628f55a4df523b3ef83604051610ee191906110be565b60405180910390a3505050565b600081519050919050565b600082825260208201905092915050565b60005b83811015610f28578082015181840152602081019050610f0d565b60008484015250505050565b6000601f19601f8301169050919050565b6000610f5082610eee565b610f5a8185610ef9565b9350610f6a818560208601610f0a565b610f7381610f34565b840191505092915050565b60006020820190508181036000830152610f988184610f45565b905092915050565b600080fd5b600073ffffffffffffffffffffffffffffffffffffffff82169050919050565b6000610fd082610fa5565b9050919050565b610fe081610fc5565b8114610feb57600080fd5b50565b600081359050610ffd81610fd7565b92915050565b6000819050919050565b61101681611003565b811461102157600080fd5b50565b6000813590506110338161100d565b92915050565b600080604083850312156110505761104f610fa0565b5b600061105e85828601610fee565b925050602061106f85828601611024565b9150509250929050565b60008115159050919050565b61108e81611079565b82525050565b60006020820190506110a96000830184611085565b92915050565b6110b881611003565b82525050565b60006020820190506110d360008301846110af565b92915050565b6000806000606084860312156110f2576110f1610fa0565b5b600061110086828701610fee565b935050602061111186828701610fee565b925050604061112286828701611024565b9150509250925092565b600060ff82169050919050565b6111428161112c565b82525050565b600060208201905061115d6000830184611139565b92915050565b60006020828403121561117957611178610fa0565b5b600061118784828501610fee565b91505092915050565b61119981610fc5565b82525050565b60006020820190506111b46000830184611190565b92915050565b600080604083850312156111d1576111d0610fa0565b5b60006111df85828601610fee565b92505060206111f085828601610fee565b9150509250929050565b7f4e487b7100000000000000000000000000000000000000000000000000000000600052602260045260246000fd5b6000600282049050600182168061124157607f821691505b602082108103611254576112536111fa565b5b50919050565b7f596f75206e65656420746f206d696e74206174206c65617374203120746f6b6560008201527f6e00000000000000000000000000000000000000000000000000000000000000602082015250565b60006112b6602183610ef9565b91506112c18261125a565b604082019050919050565b600060208201905081810360008301526112e5816112a9565b9050919050565b7f596f75206e65656420746f2073656c6c206174206c65617374203120746f6b6560008201527f6e00000000000000000000000000000000000000000000000000000000000000602082015250565b6000611348602183610ef9565b9150611353826112ec565b604082019050919050565b600060208201905081810360008301526113778161133b565b9050919050565b7f4e6f7420656e6f75676820746f6b656e7320746f2073656c6c00000000000000600082015250565b60006113b4601983610ef9565b91506113bf8261137e565b602082019050919050565b600060208201905081810360008301526113e3816113a7565b9050919050565b60006060820190506113ff6000830186611190565b61140c60208301856110af565b61141960408301846110af565b949350505050565b7f4e487b7100000000000000000000000000000000000000000000000000000000600052601160045260246000fd5b600061145b82611003565b915061146683611003565b925082820190508082111561147e5761147d611421565b5b9291505056fea26469706673582212205b1909bcac3b22310116d378c67dc0677a5b8b0a1527e1155f79464d1230127864736f6c63430008180033",
  "linkReferences": {},
  "deployedLinkReferences": {}
}