{
  "_format": "hh-sol-artifact-1",
  "contractName": "Auction",
  "sourceName": "contracts/Auction.sol",
  "abi": [
    {
      "inputs": [
        {
          "internalType": "address",
          "name": "_nexToken",
          "type": "address"
        },
        {
          "internalType": "address",
          "name": "_nexNFT",
          "type": "address"
        }
      ],
      "stateMutability": "nonpayable",
      "type": "constructor"
    },
    {
      "inputs": [],
      "name": "highestBid",
      "outputs": [
        {
          "internalType": "uint256",
          "name": "",
          "type": "uint256"
        }
      ],
      "stateMutability": "view",
      "type": "function"
    },
    {
      "inputs": [],
      "name": "mintNFT",
      "outputs": [],
      "stateMutability": "nonpayable",
      "type": "function"
    },
    {
      "inputs": [],
      "name": "nexNFT",
      "outputs": [
        {
          "internalType": "contract nftContract",
          "name": "",
          "type": "address"
        }
      ],
      "stateMutability": "view",
      "type": "function"
    },
    {
      "inputs": [],
      "name": "nexToken",
      "outputs": [
        {
          "internalType": "contract tokenContract",
          "name": "",
          "type": "address"
        }
      ],
      "stateMutability": "view",
      "type": "function"
    },
    {
      "inputs": [
        {
          "internalType": "address",
          "name": "",
          "type": "address"
        },
        {
          "internalType": "address",
          "name": "",
          "type": "address"
        },
        {
          "internalType": "uint256",
          "name": "",
          "type": "uint256"
        },
        {
          "internalType": "bytes",
          "name": "",
          "type": "bytes"
        }
      ],
      "name": "onERC721Received",
      "outputs": [
        {
          "internalType": "bytes4",
          "name": "",
          "type": "bytes4"
        }
      ],
      "stateMutability": "pure",
      "type": "function"
    },
    {
      "inputs": [],
      "name": "owner",
      "outputs": [
        {
          "internalType": "address",
          "name": "",
          "type": "address"
        }
      ],
      "stateMutability": "view",
      "type": "function"
    },
    {
      "inputs": [
        {
          "internalType": "uint256",
          "name": "",
          "type": "uint256"
        }
      ],
      "name": "participants",
      "outputs": [
        {
          "internalType": "address",
          "name": "",
          "type": "address"
        }
      ],
      "stateMutability": "view",
      "type": "function"
    },
    {
      "inputs": [],
      "name": "price",
      "outputs": [
        {
          "internalType": "uint256",
          "name": "",
          "type": "uint256"
        }
      ],
      "stateMutability": "view",
      "type": "function"
    },
    {
      "inputs": [
        {
          "internalType": "uint256",
          "name": "amount",
          "type": "uint256"
        }
      ],
      "name": "purchaseTokens",
      "outputs": [],
      "stateMutability": "payable",
      "type": "function"
    },
    {
      "inputs": [
        {
          "internalType": "string",
          "name": "_tokenUri",
          "type": "string"
        }
      ],
      "name": "register",
      "outputs": [],
      "stateMutability": "nonpayable",
      "type": "function"
    },
    {
      "inputs": [
        {
          "internalType": "uint256",
          "name": "amount",
          "type": "uint256"
        }
      ],
      "name": "sellTokens",
      "outputs": [],
      "stateMutability": "nonpayable",
      "type": "function"
    },
    {
      "inputs": [
        {
          "internalType": "uint256",
          "name": "",
          "type": "uint256"
        }
      ],
      "name": "tokenUris",
      "outputs": [
        {
          "internalType": "string",
          "name": "",
          "type": "string"
        }
      ],
      "stateMutability": "view",
      "type": "function"
    },
    {
      "inputs": [],
      "name": "winner",
      "outputs": [
        {
          "internalType": "address",
          "name": "",
          "type": "address"
        }
      ],
      "stateMutability": "view",
      "type": "function"
    },
    {
      "inputs": [
        {
          "internalType": "address",
          "name": "_winner",
          "type": "address"
        },
        {
          "internalType": "uint256",
          "name": "_highestBid",
          "type": "uint256"
        }
      ],
      "name": "winnerDetails",
      "outputs": [],
      "stateMutability": "nonpayable",
      "type": "function"
    }
  ],
  "bytecode": "0x60806040523480156200001157600080fd5b5060405162001bf438038062001bf48339818101604052810190620000379190620001fc565b33600260006101000a81548173ffffffffffffffffffffffffffffffffffffffff021916908373ffffffffffffffffffffffffffffffffffffffff160217905550816000806101000a81548173ffffffffffffffffffffffffffffffffffffffff021916908373ffffffffffffffffffffffffffffffffffffffff16021790555080600160006101000a81548173ffffffffffffffffffffffffffffffffffffffff021916908373ffffffffffffffffffffffffffffffffffffffff160217905550600160009054906101000a900473ffffffffffffffffffffffffffffffffffffffff1673ffffffffffffffffffffffffffffffffffffffff1663d204c45e306040518263ffffffff1660e01b8152600401620001569190620002b5565b600060405180830381600087803b1580156200017157600080fd5b505af115801562000186573d6000803e3d6000fd5b505050505050620002e7565b600080fd5b600073ffffffffffffffffffffffffffffffffffffffff82169050919050565b6000620001c48262000197565b9050919050565b620001d681620001b7565b8114620001e257600080fd5b50565b600081519050620001f681620001cb565b92915050565b6000806040838503121562000216576200021562000192565b5b60006200022685828601620001e5565b92505060206200023985828601620001e5565b9150509250929050565b6200024e81620001b7565b82525050565b600082825260208201905092915050565b7f68656c6c6f000000000000000000000000000000000000000000000000000000600082015250565b60006200029d60058362000254565b9150620002aa8262000265565b602082019050919050565b6000604082019050620002cc600083018462000243565b8181036020830152620002df816200028e565b905092915050565b6118fd80620002f76000396000f3fe6080604052600436106100dd5760003560e01c8063a035b1fe1161007f578063d57bde7911610059578063d57bde791461029f578063d6ff0cd8146102ca578063dfbf53ae146102f5578063f2c298be14610320576100dd565b8063a035b1fe1461020c578063a2375cc014610237578063ae882b6514610262576100dd565b8063436e26fc116100bb578063436e26fc146101735780636c11bcd31461019c5780637b97008d146101c55780638da5cb5b146101e1576100dd565b806314f710fe146100e2578063150b7a02146100f957806335c1d34914610136575b600080fd5b3480156100ee57600080fd5b506100f7610349565b005b34801561010557600080fd5b50610120600480360381019061011b9190610f60565b610842565b60405161012d9190611023565b60405180910390f35b34801561014257600080fd5b5061015d6004803603810190610158919061103e565b610857565b60405161016a919061107a565b60405180910390f35b34801561017f57600080fd5b5061019a60048036038101906101959190611095565b610896565b005b3480156101a857600080fd5b506101c360048036038101906101be919061103e565b610972565b005b6101df60048036038101906101da919061103e565b610a6f565b005b3480156101ed57600080fd5b506101f6610b68565b604051610203919061107a565b60405180910390f35b34801561021857600080fd5b50610221610b8e565b60405161022e91906110e4565b60405180910390f35b34801561024357600080fd5b5061024c610b9a565b604051610259919061115e565b60405180910390f35b34801561026e57600080fd5b506102896004803603810190610284919061103e565b610bbe565b6040516102969190611209565b60405180910390f35b3480156102ab57600080fd5b506102b4610c6a565b6040516102c191906110e4565b60405180910390f35b3480156102d657600080fd5b506102df610c70565b6040516102ec919061124c565b60405180910390f35b34801561030157600080fd5b5061030a610c96565b604051610317919061107a565b60405180910390f35b34801561032c57600080fd5b5061034760048036038101906103429190611397565b610cbc565b005b600460009054906101000a900473ffffffffffffffffffffffffffffffffffffffff1673ffffffffffffffffffffffffffffffffffffffff163373ffffffffffffffffffffffffffffffffffffffff16146103a357600080fd5b6000600354036103b257600080fd5b60008054906101000a900473ffffffffffffffffffffffffffffffffffffffff1673ffffffffffffffffffffffffffffffffffffffff1663f464e7db33670de0b6b3a7640000600354610405919061140f565b6040518363ffffffff1660e01b8152600401610422929190611451565b600060405180830381600087803b15801561043c57600080fd5b505af1158015610450573d6000803e3d6000fd5b5050505060008060058054905090505b808210156104fc576005828154811061047c5761047b61147a565b5b9060005260206000200160009054906101000a900473ffffffffffffffffffffffffffffffffffffffff1673ffffffffffffffffffffffffffffffffffffffff16600460009054906101000a900473ffffffffffffffffffffffffffffffffffffffff1673ffffffffffffffffffffffffffffffffffffffff1603610460575b6000600160009054906101000a900473ffffffffffffffffffffffffffffffffffffffff1673ffffffffffffffffffffffffffffffffffffffff166392d21b916040518163ffffffff1660e01b8152600401602060405180830381865afa15801561056b573d6000803e3d6000fd5b505050506040513d601f19601f8201168201806040525081019061058f91906114be565b9050600160009054906101000a900473ffffffffffffffffffffffffffffffffffffffff1673ffffffffffffffffffffffffffffffffffffffff166342966c68826040518263ffffffff1660e01b81526004016105ec91906110e4565b600060405180830381600087803b15801561060657600080fd5b505af115801561061a573d6000803e3d6000fd5b505050506000600684815481106106345761063361147a565b5b9060005260206000200180546106499061151a565b80601f01602080910402602001604051908101604052809291908181526020018280546106759061151a565b80156106c25780601f10610697576101008083540402835291602001916106c2565b820191906000526020600020905b8154815290600101906020018083116106a557829003601f168201915b50505050509050600160009054906101000a900473ffffffffffffffffffffffffffffffffffffffff1673ffffffffffffffffffffffffffffffffffffffff1663d204c45e30836040518363ffffffff1660e01b815260040161072692919061154b565b600060405180830381600087803b15801561074057600080fd5b505af1158015610754573d6000803e3d6000fd5b50505050600260009054906101000a900473ffffffffffffffffffffffffffffffffffffffff1673ffffffffffffffffffffffffffffffffffffffff166108fc67016345785d8a00006003546107aa919061140f565b9081150290604051600060405180830381858888f193505050501580156107d5573d6000803e3d6000fd5b506000600460006101000a81548173ffffffffffffffffffffffffffffffffffffffff021916908373ffffffffffffffffffffffffffffffffffffffff16021790555060006003819055506005600061082e9190610d90565b6006600061083c9190610db1565b50505050565b600063150b7a0260e01b905095945050505050565b6005818154811061086757600080fd5b906000526020600020016000915054906101000a900473ffffffffffffffffffffffffffffffffffffffff1681565b3373ffffffffffffffffffffffffffffffffffffffff16600260009054906101000a900473ffffffffffffffffffffffffffffffffffffffff1673ffffffffffffffffffffffffffffffffffffffff1614610926576040517f08c379a000000000000000000000000000000000000000000000000000000000815260040161091d906115c7565b60405180910390fd5b81600460006101000a81548173ffffffffffffffffffffffffffffffffffffffff021916908373ffffffffffffffffffffffffffffffffffffffff160217905550806003819055505050565b60008054906101000a900473ffffffffffffffffffffffffffffffffffffffff1673ffffffffffffffffffffffffffffffffffffffff1663f464e7db33670de0b6b3a7640000846109c3919061140f565b6040518363ffffffff1660e01b81526004016109e0929190611451565b600060405180830381600087803b1580156109fa57600080fd5b505af1158015610a0e573d6000803e3d6000fd5b505050503373ffffffffffffffffffffffffffffffffffffffff166108fc8267016345785d8a0000610a40919061140f565b9081150290604051600060405180830381858888f19350505050158015610a6b573d6000803e3d6000fd5b5050565b8067016345785d8a0000610a83919061140f565b341015610ac5576040517f08c379a0000000000000000000000000000000000000000000000000000000008152600401610abc90611633565b60405180910390fd5b60008054906101000a900473ffffffffffffffffffffffffffffffffffffffff1673ffffffffffffffffffffffffffffffffffffffff166368f8fc1033670de0b6b3a764000084610b16919061140f565b6040518363ffffffff1660e01b8152600401610b33929190611451565b600060405180830381600087803b158015610b4d57600080fd5b505af1158015610b61573d6000803e3d6000fd5b5050505050565b600260009054906101000a900473ffffffffffffffffffffffffffffffffffffffff1681565b67016345785d8a000081565b60008054906101000a900473ffffffffffffffffffffffffffffffffffffffff1681565b60068181548110610bce57600080fd5b906000526020600020016000915090508054610be99061151a565b80601f0160208091040260200160405190810160405280929190818152602001828054610c159061151a565b8015610c625780601f10610c3757610100808354040283529160200191610c62565b820191906000526020600020905b815481529060010190602001808311610c4557829003601f168201915b505050505081565b60035481565b600160009054906101000a900473ffffffffffffffffffffffffffffffffffffffff1681565b600460009054906101000a900473ffffffffffffffffffffffffffffffffffffffff1681565b600073ffffffffffffffffffffffffffffffffffffffff163373ffffffffffffffffffffffffffffffffffffffff1603610cf557600080fd5b6005339080600181540180825580915050600190039060005260206000200160009091909190916101000a81548173ffffffffffffffffffffffffffffffffffffffff021916908373ffffffffffffffffffffffffffffffffffffffff160217905550600681908060018154018082558091505060019003906000526020600020016000909190919091509081610d8c91906117f5565b5050565b5080546000825590600052602060002090810190610dae9190610dd2565b50565b5080546000825590600052602060002090810190610dcf9190610def565b50565b5b80821115610deb576000816000905550600101610dd3565b5090565b5b80821115610e0f5760008181610e069190610e13565b50600101610df0565b5090565b508054610e1f9061151a565b6000825580601f10610e315750610e50565b601f016020900490600052602060002090810190610e4f9190610dd2565b5b50565b6000604051905090565b600080fd5b600080fd5b600073ffffffffffffffffffffffffffffffffffffffff82169050919050565b6000610e9282610e67565b9050919050565b610ea281610e87565b8114610ead57600080fd5b50565b600081359050610ebf81610e99565b92915050565b6000819050919050565b610ed881610ec5565b8114610ee357600080fd5b50565b600081359050610ef581610ecf565b92915050565b600080fd5b600080fd5b600080fd5b60008083601f840112610f2057610f1f610efb565b5b8235905067ffffffffffffffff811115610f3d57610f3c610f00565b5b602083019150836001820283011115610f5957610f58610f05565b5b9250929050565b600080600080600060808688031215610f7c57610f7b610e5d565b5b6000610f8a88828901610eb0565b9550506020610f9b88828901610eb0565b9450506040610fac88828901610ee6565b935050606086013567ffffffffffffffff811115610fcd57610fcc610e62565b5b610fd988828901610f0a565b92509250509295509295909350565b60007fffffffff0000000000000000000000000000000000000000000000000000000082169050919050565b61101d81610fe8565b82525050565b60006020820190506110386000830184611014565b92915050565b60006020828403121561105457611053610e5d565b5b600061106284828501610ee6565b91505092915050565b61107481610e87565b82525050565b600060208201905061108f600083018461106b565b92915050565b600080604083850312156110ac576110ab610e5d565b5b60006110ba85828601610eb0565b92505060206110cb85828601610ee6565b9150509250929050565b6110de81610ec5565b82525050565b60006020820190506110f960008301846110d5565b92915050565b6000819050919050565b600061112461111f61111a84610e67565b6110ff565b610e67565b9050919050565b600061113682611109565b9050919050565b60006111488261112b565b9050919050565b6111588161113d565b82525050565b6000602082019050611173600083018461114f565b92915050565b600081519050919050565b600082825260208201905092915050565b60005b838110156111b3578082015181840152602081019050611198565b60008484015250505050565b6000601f19601f8301169050919050565b60006111db82611179565b6111e58185611184565b93506111f5818560208601611195565b6111fe816111bf565b840191505092915050565b6000602082019050818103600083015261122381846111d0565b905092915050565b60006112368261112b565b9050919050565b6112468161122b565b82525050565b6000602082019050611261600083018461123d565b92915050565b600080fd5b7f4e487b7100000000000000000000000000000000000000000000000000000000600052604160045260246000fd5b6112a4826111bf565b810181811067ffffffffffffffff821117156112c3576112c261126c565b5b80604052505050565b60006112d6610e53565b90506112e2828261129b565b919050565b600067ffffffffffffffff8211156113025761130161126c565b5b61130b826111bf565b9050602081019050919050565b82818337600083830152505050565b600061133a611335846112e7565b6112cc565b90508281526020810184848401111561135657611355611267565b5b611361848285611318565b509392505050565b600082601f83011261137e5761137d610efb565b5b813561138e848260208601611327565b91505092915050565b6000602082840312156113ad576113ac610e5d565b5b600082013567ffffffffffffffff8111156113cb576113ca610e62565b5b6113d784828501611369565b91505092915050565b7f4e487b7100000000000000000000000000000000000000000000000000000000600052601160045260246000fd5b600061141a82610ec5565b915061142583610ec5565b925082820261143381610ec5565b9150828204841483151761144a576114496113e0565b5b5092915050565b6000604082019050611466600083018561106b565b61147360208301846110d5565b9392505050565b7f4e487b7100000000000000000000000000000000000000000000000000000000600052603260045260246000fd5b6000815190506114b881610ecf565b92915050565b6000602082840312156114d4576114d3610e5d565b5b60006114e2848285016114a9565b91505092915050565b7f4e487b7100000000000000000000000000000000000000000000000000000000600052602260045260246000fd5b6000600282049050600182168061153257607f821691505b602082108103611545576115446114eb565b5b50919050565b6000604082019050611560600083018561106b565b818103602083015261157281846111d0565b90509392505050565b7f796f7520617265206e6f7420746865206f776e65722100000000000000000000600082015250565b60006115b1601683611184565b91506115bc8261157b565b602082019050919050565b600060208201905081810360008301526115e0816115a4565b9050919050565b7f4e6f7420656e6f7567682065746865722073656e740000000000000000000000600082015250565b600061161d601583611184565b9150611628826115e7565b602082019050919050565b6000602082019050818103600083015261164c81611610565b9050919050565b60008190508160005260206000209050919050565b60006020601f8301049050919050565b600082821b905092915050565b6000600883026116b57fffffffffffffffffffffffffffffffffffffffffffffffffffffffffffffffff82611678565b6116bf8683611678565b95508019841693508086168417925050509392505050565b60006116f26116ed6116e884610ec5565b6110ff565b610ec5565b9050919050565b6000819050919050565b61170c836116d7565b611720611718826116f9565b848454611685565b825550505050565b600090565b611735611728565b611740818484611703565b505050565b5b818110156117645761175960008261172d565b600181019050611746565b5050565b601f8211156117a95761177a81611653565b61178384611668565b81016020851015611792578190505b6117a661179e85611668565b830182611745565b50505b505050565b600082821c905092915050565b60006117cc600019846008026117ae565b1980831691505092915050565b60006117e583836117bb565b9150826002028217905092915050565b6117fe82611179565b67ffffffffffffffff8111156118175761181661126c565b5b611821825461151a565b61182c828285611768565b600060209050601f83116001811461185f576000841561184d578287015190505b61185785826117d9565b8655506118bf565b601f19841661186d86611653565b60005b8281101561189557848901518255600182019150602085019450602081019050611870565b868310156118b257848901516118ae601f8916826117bb565b8355505b6001600288020188555050505b50505050505056fea2646970667358221220e696d14be42d6559a406d903b67c888a4cc84ca3db1d91db33630804f47423ab64736f6c63430008180033",
  "linkReferences": {},
  "deployedLinkReferences": {}
}