{
  "_format": "hh-sol-artifact-1",
  "contractName": "NexNFT",
  "sourceName": "contracts/NexNFT.sol",
  "abi": [
    {
      "inputs": [],
      "stateMutability": "nonpayable",
      "type": "constructor"
    },
    {
      "inputs": [
        {
          "internalType": "address",
          "name": "sender",
          "type": "address"
        },
        {
          "internalType": "uint256",
          "name": "tokenId",
          "type": "uint256"
        },
        {
          "internalType": "address",
          "name": "owner",
          "type": "address"
        }
      ],
      "name": "ERC721IncorrectOwner",
      "type": "error"
    },
    {
      "inputs": [
        {
          "internalType": "address",
          "name": "operator",
          "type": "address"
        },
        {
          "internalType": "uint256",
          "name": "tokenId",
          "type": "uint256"
        }
      ],
      "name": "ERC721InsufficientApproval",
      "type": "error"
    },
    {
      "inputs": [
        {
          "internalType": "address",
          "name": "approver",
          "type": "address"
        }
      ],
      "name": "ERC721InvalidApprover",
      "type": "error"
    },
    {
      "inputs": [
        {
          "internalType": "address",
          "name": "operator",
          "type": "address"
        }
      ],
      "name": "ERC721InvalidOperator",
      "type": "error"
    },
    {
      "inputs": [
        {
          "internalType": "address",
          "name": "owner",
          "type": "address"
        }
      ],
      "name": "ERC721InvalidOwner",
      "type": "error"
    },
    {
      "inputs": [
        {
          "internalType": "address",
          "name": "receiver",
          "type": "address"
        }
      ],
      "name": "ERC721InvalidReceiver",
      "type": "error"
    },
    {
      "inputs": [
        {
          "internalType": "address",
          "name": "sender",
          "type": "address"
        }
      ],
      "name": "ERC721InvalidSender",
      "type": "error"
    },
    {
      "inputs": [
        {
          "internalType": "uint256",
          "name": "tokenId",
          "type": "uint256"
        }
      ],
      "name": "ERC721NonexistentToken",
      "type": "error"
    },
    {
      "anonymous": false,
      "inputs": [
        {
          "indexed": true,
          "internalType": "address",
          "name": "owner",
          "type": "address"
        },
        {
          "indexed": true,
          "internalType": "address",
          "name": "approved",
          "type": "address"
        },
        {
          "indexed": true,
          "internalType": "uint256",
          "name": "tokenId",
          "type": "uint256"
        }
      ],
      "name": "Approval",
      "type": "event"
    },
    {
      "anonymous": false,
      "inputs": [
        {
          "indexed": true,
          "internalType": "address",
          "name": "owner",
          "type": "address"
        },
        {
          "indexed": true,
          "internalType": "address",
          "name": "operator",
          "type": "address"
        },
        {
          "indexed": false,
          "internalType": "bool",
          "name": "approved",
          "type": "bool"
        }
      ],
      "name": "ApprovalForAll",
      "type": "event"
    },
    {
      "anonymous": false,
      "inputs": [
        {
          "indexed": false,
          "internalType": "uint256",
          "name": "_fromTokenId",
          "type": "uint256"
        },
        {
          "indexed": false,
          "internalType": "uint256",
          "name": "_toTokenId",
          "type": "uint256"
        }
      ],
      "name": "BatchMetadataUpdate",
      "type": "event"
    },
    {
      "anonymous": false,
      "inputs": [
        {
          "indexed": false,
          "internalType": "uint256",
          "name": "_tokenId",
          "type": "uint256"
        }
      ],
      "name": "MetadataUpdate",
      "type": "event"
    },
    {
      "anonymous": false,
      "inputs": [
        {
          "indexed": true,
          "internalType": "address",
          "name": "from",
          "type": "address"
        },
        {
          "indexed": true,
          "internalType": "address",
          "name": "to",
          "type": "address"
        },
        {
          "indexed": true,
          "internalType": "uint256",
          "name": "tokenId",
          "type": "uint256"
        }
      ],
      "name": "Transfer",
      "type": "event"
    },
    {
      "inputs": [
        {
          "internalType": "address",
          "name": "to",
          "type": "address"
        },
        {
          "internalType": "uint256",
          "name": "tokenId",
          "type": "uint256"
        }
      ],
      "name": "approve",
      "outputs": [],
      "stateMutability": "nonpayable",
      "type": "function"
    },
    {
      "inputs": [
        {
          "internalType": "address",
          "name": "owner",
          "type": "address"
        }
      ],
      "name": "balanceOf",
      "outputs": [
        {
          "internalType": "uint256",
          "name": "",
          "type": "uint256"
        }
      ],
      "stateMutability": "view",
      "type": "function"
    },
    {
      "inputs": [
        {
          "internalType": "uint256",
          "name": "tokenId",
          "type": "uint256"
        }
      ],
      "name": "burn",
      "outputs": [],
      "stateMutability": "nonpayable",
      "type": "function"
    },
    {
      "inputs": [
        {
          "internalType": "uint256",
          "name": "tokenId",
          "type": "uint256"
        }
      ],
      "name": "getApproved",
      "outputs": [
        {
          "internalType": "address",
          "name": "",
          "type": "address"
        }
      ],
      "stateMutability": "view",
      "type": "function"
    },
    {
      "inputs": [
        {
          "internalType": "address",
          "name": "owner",
          "type": "address"
        },
        {
          "internalType": "address",
          "name": "operator",
          "type": "address"
        }
      ],
      "name": "isApprovedForAll",
      "outputs": [
        {
          "internalType": "bool",
          "name": "",
          "type": "bool"
        }
      ],
      "stateMutability": "view",
      "type": "function"
    },
    {
      "inputs": [],
      "name": "name",
      "outputs": [
        {
          "internalType": "string",
          "name": "",
          "type": "string"
        }
      ],
      "stateMutability": "view",
      "type": "function"
    },
    {
      "inputs": [],
      "name": "owner",
      "outputs": [
        {
          "internalType": "address",
          "name": "",
          "type": "address"
        }
      ],
      "stateMutability": "view",
      "type": "function"
    },
    {
      "inputs": [
        {
          "internalType": "uint256",
          "name": "tokenId",
          "type": "uint256"
        }
      ],
      "name": "ownerOf",
      "outputs": [
        {
          "internalType": "address",
          "name": "",
          "type": "address"
        }
      ],
      "stateMutability": "view",
      "type": "function"
    },
    {
      "inputs": [],
      "name": "prevTokenId",
      "outputs": [
        {
          "internalType": "uint256",
          "name": "",
          "type": "uint256"
        }
      ],
      "stateMutability": "view",
      "type": "function"
    },
    {
      "inputs": [
        {
          "internalType": "address",
          "name": "to",
          "type": "address"
        },
        {
          "internalType": "string",
          "name": "uri",
          "type": "string"
        }
      ],
      "name": "safeMint",
      "outputs": [],
      "stateMutability": "nonpayable",
      "type": "function"
    },
    {
      "inputs": [
        {
          "internalType": "address",
          "name": "from",
          "type": "address"
        },
        {
          "internalType": "address",
          "name": "to",
          "type": "address"
        },
        {
          "internalType": "uint256",
          "name": "tokenId",
          "type": "uint256"
        }
      ],
      "name": "safeTransferFrom",
      "outputs": [],
      "stateMutability": "nonpayable",
      "type": "function"
    },
    {
      "inputs": [
        {
          "internalType": "address",
          "name": "from",
          "type": "address"
        },
        {
          "internalType": "address",
          "name": "to",
          "type": "address"
        },
        {
          "internalType": "uint256",
          "name": "tokenId",
          "type": "uint256"
        },
        {
          "internalType": "bytes",
          "name": "data",
          "type": "bytes"
        }
      ],
      "name": "safeTransferFrom",
      "outputs": [],
      "stateMutability": "nonpayable",
      "type": "function"
    },
    {
      "inputs": [
        {
          "internalType": "address",
          "name": "operator",
          "type": "address"
        },
        {
          "internalType": "bool",
          "name": "approved",
          "type": "bool"
        }
      ],
      "name": "setApprovalForAll",
      "outputs": [],
      "stateMutability": "nonpayable",
      "type": "function"
    },
    {
      "inputs": [
        {
          "internalType": "bytes4",
          "name": "interfaceId",
          "type": "bytes4"
        }
      ],
      "name": "supportsInterface",
      "outputs": [
        {
          "internalType": "bool",
          "name": "",
          "type": "bool"
        }
      ],
      "stateMutability": "view",
      "type": "function"
    },
    {
      "inputs": [],
      "name": "symbol",
      "outputs": [
        {
          "internalType": "string",
          "name": "",
          "type": "string"
        }
      ],
      "stateMutability": "view",
      "type": "function"
    },
    {
      "inputs": [
        {
          "internalType": "uint256",
          "name": "tokenId",
          "type": "uint256"
        }
      ],
      "name": "tokenURI",
      "outputs": [
        {
          "internalType": "string",
          "name": "",
          "type": "string"
        }
      ],
      "stateMutability": "view",
      "type": "function"
    },
    {
      "inputs": [
        {
          "internalType": "address",
          "name": "from",
          "type": "address"
        },
        {
          "internalType": "address",
          "name": "to",
          "type": "address"
        },
        {
          "internalType": "uint256",
          "name": "tokenId",
          "type": "uint256"
        }
      ],
      "name": "transferFrom",
      "outputs": [],
      "stateMutability": "nonpayable",
      "type": "function"
    }
  ],
  "bytecode": "0x60806040523480156200001157600080fd5b506040518060400160405280600781526020017f4e657842697a6e000000000000000000000000000000000000000000000000008152506040518060400160405280600381526020017f42495a000000000000000000000000000000000000000000000000000000000081525081600090816200008f919062000365565b508060019081620000a1919062000365565b50505033600860006101000a81548173ffffffffffffffffffffffffffffffffffffffff021916908373ffffffffffffffffffffffffffffffffffffffff1602179055506200044c565b600081519050919050565b7f4e487b7100000000000000000000000000000000000000000000000000000000600052604160045260246000fd5b7f4e487b7100000000000000000000000000000000000000000000000000000000600052602260045260246000fd5b600060028204905060018216806200016d57607f821691505b60208210810362000183576200018262000125565b5b50919050565b60008190508160005260206000209050919050565b60006020601f8301049050919050565b600082821b905092915050565b600060088302620001ed7fffffffffffffffffffffffffffffffffffffffffffffffffffffffffffffffff82620001ae565b620001f98683620001ae565b95508019841693508086168417925050509392505050565b6000819050919050565b6000819050919050565b600062000246620002406200023a8462000211565b6200021b565b62000211565b9050919050565b6000819050919050565b620002628362000225565b6200027a62000271826200024d565b848454620001bb565b825550505050565b600090565b6200029162000282565b6200029e81848462000257565b505050565b5b81811015620002c657620002ba60008262000287565b600181019050620002a4565b5050565b601f8211156200031557620002df8162000189565b620002ea846200019e565b81016020851015620002fa578190505b6200031262000309856200019e565b830182620002a3565b50505b505050565b600082821c905092915050565b60006200033a600019846008026200031a565b1980831691505092915050565b600062000355838362000327565b9150826002028217905092915050565b6200037082620000eb565b67ffffffffffffffff8111156200038c576200038b620000f6565b5b62000398825462000154565b620003a5828285620002ca565b600060209050601f831160018114620003dd5760008415620003c8578287015190505b620003d4858262000347565b86555062000444565b601f198416620003ed8662000189565b60005b828110156200041757848901518255600182019150602085019450602081019050620003f0565b8683101562000437578489015162000433601f89168262000327565b8355505b6001600288020188555050505b505050505050565b612500806200045c6000396000f3fe608060405234801561001057600080fd5b506004361061010b5760003560e01c806370a08231116100a2578063a22cb46511610071578063a22cb465146102b8578063b88d4fde146102d4578063c87b56dd146102f0578063d204c45e14610320578063e985e9c51461033c5761010b565b806370a082311461022e5780638da5cb5b1461025e57806392d21b911461027c57806395d89b411461029a5761010b565b806323b872dd116100de57806323b872dd146101aa57806342842e0e146101c657806342966c68146101e25780636352211e146101fe5761010b565b806301ffc9a71461011057806306fdde0314610140578063081812fc1461015e578063095ea7b31461018e575b600080fd5b61012a60048036038101906101259190611924565b61036c565b604051610137919061196c565b60405180910390f35b61014861037e565b6040516101559190611a17565b60405180910390f35b61017860048036038101906101739190611a6f565b610410565b6040516101859190611add565b60405180910390f35b6101a860048036038101906101a39190611b24565b61042c565b005b6101c460048036038101906101bf9190611b64565b610442565b005b6101e060048036038101906101db9190611b64565b610544565b005b6101fc60048036038101906101f79190611a6f565b610564565b005b61021860048036038101906102139190611a6f565b61057b565b6040516102259190611add565b60405180910390f35b61024860048036038101906102439190611bb7565b61058d565b6040516102559190611bf3565b60405180910390f35b610266610647565b6040516102739190611add565b60405180910390f35b61028461066d565b6040516102919190611bf3565b60405180910390f35b6102a2610683565b6040516102af9190611a17565b60405180910390f35b6102d260048036038101906102cd9190611c3a565b610715565b005b6102ee60048036038101906102e99190611daf565b61072b565b005b61030a60048036038101906103059190611a6f565b610748565b6040516103179190611a17565b60405180910390f35b61033a60048036038101906103359190611ed3565b61075a565b005b61035660048036038101906103519190611f2f565b61078e565b604051610363919061196c565b60405180910390f35b600061037782610822565b9050919050565b60606000805461038d90611f9e565b80601f01602080910402602001604051908101604052809291908181526020018280546103b990611f9e565b80156104065780601f106103db57610100808354040283529160200191610406565b820191906000526020600020905b8154815290600101906020018083116103e957829003601f168201915b5050505050905090565b600061041b82610883565b506104258261090b565b9050919050565b61043e8282610439610948565b610950565b5050565b600073ffffffffffffffffffffffffffffffffffffffff168273ffffffffffffffffffffffffffffffffffffffff16036104b45760006040517f64a0ae920000000000000000000000000000000000000000000000000000000081526004016104ab9190611add565b60405180910390fd5b60006104c883836104c3610948565b610962565b90508373ffffffffffffffffffffffffffffffffffffffff168173ffffffffffffffffffffffffffffffffffffffff161461053e578382826040517f64283d7b00000000000000000000000000000000000000000000000000000000815260040161053593929190611fcf565b60405180910390fd5b50505050565b61055f8383836040518060200160405280600081525061072b565b505050565b610577600082610572610948565b610962565b5050565b600061058682610883565b9050919050565b60008073ffffffffffffffffffffffffffffffffffffffff168273ffffffffffffffffffffffffffffffffffffffff16036106005760006040517f89c62b640000000000000000000000000000000000000000000000000000000081526004016105f79190611add565b60405180910390fd5b600360008373ffffffffffffffffffffffffffffffffffffffff1673ffffffffffffffffffffffffffffffffffffffff168152602001908152602001600020549050919050565b600860009054906101000a900473ffffffffffffffffffffffffffffffffffffffff1681565b6000600160075461067e9190612035565b905090565b60606001805461069290611f9e565b80601f01602080910402602001604051908101604052809291908181526020018280546106be90611f9e565b801561070b5780601f106106e05761010080835404028352916020019161070b565b820191906000526020600020905b8154815290600101906020018083116106ee57829003601f168201915b5050505050905090565b610727610720610948565b8383610b7c565b5050565b610736848484610442565b61074284848484610ceb565b50505050565b606061075382610ea2565b9050919050565b60006007600081548092919061076f90612069565b91905055905061077f8382610fb5565b6107898183610fd3565b505050565b6000600560008473ffffffffffffffffffffffffffffffffffffffff1673ffffffffffffffffffffffffffffffffffffffff16815260200190815260200160002060008373ffffffffffffffffffffffffffffffffffffffff1673ffffffffffffffffffffffffffffffffffffffff16815260200190815260200160002060009054906101000a900460ff16905092915050565b6000634906490660e01b7bffffffffffffffffffffffffffffffffffffffffffffffffffffffff1916827bffffffffffffffffffffffffffffffffffffffffffffffffffffffff1916148061087c575061087b8261102f565b5b9050919050565b60008061088f83611111565b9050600073ffffffffffffffffffffffffffffffffffffffff168173ffffffffffffffffffffffffffffffffffffffff160361090257826040517f7e2732890000000000000000000000000000000000000000000000000000000081526004016108f99190611bf3565b60405180910390fd5b80915050919050565b60006004600083815260200190815260200160002060009054906101000a900473ffffffffffffffffffffffffffffffffffffffff169050919050565b600033905090565b61095d838383600161114e565b505050565b60008061096e84611111565b9050600073ffffffffffffffffffffffffffffffffffffffff168373ffffffffffffffffffffffffffffffffffffffff16146109b0576109af818486611313565b5b600073ffffffffffffffffffffffffffffffffffffffff168173ffffffffffffffffffffffffffffffffffffffff1614610a41576109f260008560008061114e565b6001600360008373ffffffffffffffffffffffffffffffffffffffff1673ffffffffffffffffffffffffffffffffffffffff168152602001908152602001600020600082825403925050819055505b600073ffffffffffffffffffffffffffffffffffffffff168573ffffffffffffffffffffffffffffffffffffffff1614610ac4576001600360008773ffffffffffffffffffffffffffffffffffffffff1673ffffffffffffffffffffffffffffffffffffffff168152602001908152602001600020600082825401925050819055505b846002600086815260200190815260200160002060006101000a81548173ffffffffffffffffffffffffffffffffffffffff021916908373ffffffffffffffffffffffffffffffffffffffff160217905550838573ffffffffffffffffffffffffffffffffffffffff168273ffffffffffffffffffffffffffffffffffffffff167fddf252ad1be2c89b69c2b068fc378daa952ba7f163c4a11628f55a4df523b3ef60405160405180910390a4809150509392505050565b600073ffffffffffffffffffffffffffffffffffffffff168273ffffffffffffffffffffffffffffffffffffffff1603610bed57816040517f5b08ba18000000000000000000000000000000000000000000000000000000008152600401610be49190611add565b60405180910390fd5b80600560008573ffffffffffffffffffffffffffffffffffffffff1673ffffffffffffffffffffffffffffffffffffffff16815260200190815260200160002060008473ffffffffffffffffffffffffffffffffffffffff1673ffffffffffffffffffffffffffffffffffffffff16815260200190815260200160002060006101000a81548160ff0219169083151502179055508173ffffffffffffffffffffffffffffffffffffffff168373ffffffffffffffffffffffffffffffffffffffff167f17307eab39ab6107e8899845ad3d59bd9653f200f220920489ca2b5937696c3183604051610cde919061196c565b60405180910390a3505050565b60008373ffffffffffffffffffffffffffffffffffffffff163b1115610e9c578273ffffffffffffffffffffffffffffffffffffffff1663150b7a02610d2f610948565b8685856040518563ffffffff1660e01b8152600401610d519493929190612106565b6020604051808303816000875af1925050508015610d8d57506040513d601f19601f82011682018060405250810190610d8a9190612167565b60015b610e11573d8060008114610dbd576040519150601f19603f3d011682016040523d82523d6000602084013e610dc2565b606091505b506000815103610e0957836040517f64a0ae92000000000000000000000000000000000000000000000000000000008152600401610e009190611add565b60405180910390fd5b805181602001fd5b63150b7a0260e01b7bffffffffffffffffffffffffffffffffffffffffffffffffffffffff1916817bffffffffffffffffffffffffffffffffffffffffffffffffffffffff191614610e9a57836040517f64a0ae92000000000000000000000000000000000000000000000000000000008152600401610e919190611add565b60405180910390fd5b505b50505050565b6060610ead82610883565b506000600660008481526020019081526020016000208054610ece90611f9e565b80601f0160208091040260200160405190810160405280929190818152602001828054610efa90611f9e565b8015610f475780601f10610f1c57610100808354040283529160200191610f47565b820191906000526020600020905b815481529060010190602001808311610f2a57829003601f168201915b505050505090506000610f586113d7565b90506000815103610f6d578192505050610fb0565b600082511115610fa2578082604051602001610f8a9291906121d0565b60405160208183030381529060405292505050610fb0565b610fab846113ee565b925050505b919050565b610fcf828260405180602001604052806000815250611457565b5050565b80600660008481526020019081526020016000209081610ff391906123a0565b507ff8e1a15aba9398e019f0b49df1a4fde98ee17ae345cb5f6b5e2c27f5033e8ce7826040516110239190611bf3565b60405180910390a15050565b60007f80ac58cd000000000000000000000000000000000000000000000000000000007bffffffffffffffffffffffffffffffffffffffffffffffffffffffff1916827bffffffffffffffffffffffffffffffffffffffffffffffffffffffff191614806110fa57507f5b5e139f000000000000000000000000000000000000000000000000000000007bffffffffffffffffffffffffffffffffffffffffffffffffffffffff1916827bffffffffffffffffffffffffffffffffffffffffffffffffffffffff1916145b8061110a575061110982611473565b5b9050919050565b60006002600083815260200190815260200160002060009054906101000a900473ffffffffffffffffffffffffffffffffffffffff169050919050565b80806111875750600073ffffffffffffffffffffffffffffffffffffffff168273ffffffffffffffffffffffffffffffffffffffff1614155b156112bb57600061119784610883565b9050600073ffffffffffffffffffffffffffffffffffffffff168373ffffffffffffffffffffffffffffffffffffffff161415801561120257508273ffffffffffffffffffffffffffffffffffffffff168173ffffffffffffffffffffffffffffffffffffffff1614155b80156112155750611213818461078e565b155b1561125757826040517fa9fbf51f00000000000000000000000000000000000000000000000000000000815260040161124e9190611add565b60405180910390fd5b81156112b957838573ffffffffffffffffffffffffffffffffffffffff168273ffffffffffffffffffffffffffffffffffffffff167f8c5be1e5ebec7d5bd14f71427d1e84f3dd0314c0f7b2291e5b200ac8c7c3b92560405160405180910390a45b505b836004600085815260200190815260200160002060006101000a81548173ffffffffffffffffffffffffffffffffffffffff021916908373ffffffffffffffffffffffffffffffffffffffff16021790555050505050565b61131e8383836114dd565b6113d257600073ffffffffffffffffffffffffffffffffffffffff168373ffffffffffffffffffffffffffffffffffffffff160361139357806040517f7e27328900000000000000000000000000000000000000000000000000000000815260040161138a9190611bf3565b60405180910390fd5b81816040517f177e802f0000000000000000000000000000000000000000000000000000000081526004016113c9929190612472565b60405180910390fd5b505050565b606060405180602001604052806000815250905090565b60606113f982610883565b5060006114046113d7565b90506000815111611424576040518060200160405280600081525061144f565b8061142e8461159e565b60405160200161143f9291906121d0565b6040516020818303038152906040525b915050919050565b611461838361166c565b61146e6000848484610ceb565b505050565b60007f01ffc9a7000000000000000000000000000000000000000000000000000000007bffffffffffffffffffffffffffffffffffffffffffffffffffffffff1916827bffffffffffffffffffffffffffffffffffffffffffffffffffffffff1916149050919050565b60008073ffffffffffffffffffffffffffffffffffffffff168373ffffffffffffffffffffffffffffffffffffffff161415801561159557508273ffffffffffffffffffffffffffffffffffffffff168473ffffffffffffffffffffffffffffffffffffffff1614806115565750611555848461078e565b5b8061159457508273ffffffffffffffffffffffffffffffffffffffff1661157c8361090b565b73ffffffffffffffffffffffffffffffffffffffff16145b5b90509392505050565b6060600060016115ad84611765565b01905060008167ffffffffffffffff8111156115cc576115cb611c84565b5b6040519080825280601f01601f1916602001820160405280156115fe5781602001600182028036833780820191505090505b509050600082602001820190505b600115611661578080600190039150507f3031323334353637383961626364656600000000000000000000000000000000600a86061a8153600a85816116555761165461249b565b5b0494506000850361160c575b819350505050919050565b600073ffffffffffffffffffffffffffffffffffffffff168273ffffffffffffffffffffffffffffffffffffffff16036116de5760006040517f64a0ae920000000000000000000000000000000000000000000000000000000081526004016116d59190611add565b60405180910390fd5b60006116ec83836000610962565b9050600073ffffffffffffffffffffffffffffffffffffffff168173ffffffffffffffffffffffffffffffffffffffff16146117605760006040517f73c6ac6e0000000000000000000000000000000000000000000000000000000081526004016117579190611add565b60405180910390fd5b505050565b600080600090507a184f03e93ff9f4daa797ed6e38ed64bf6a1f01000000000000000083106117c3577a184f03e93ff9f4daa797ed6e38ed64bf6a1f01000000000000000083816117b9576117b861249b565b5b0492506040810190505b6d04ee2d6d415b85acef81000000008310611800576d04ee2d6d415b85acef810000000083816117f6576117f561249b565b5b0492506020810190505b662386f26fc10000831061182f57662386f26fc1000083816118255761182461249b565b5b0492506010810190505b6305f5e1008310611858576305f5e100838161184e5761184d61249b565b5b0492506008810190505b612710831061187d5761271083816118735761187261249b565b5b0492506004810190505b606483106118a057606483816118965761189561249b565b5b0492506002810190505b600a83106118af576001810190505b80915050919050565b6000604051905090565b600080fd5b600080fd5b60007fffffffff0000000000000000000000000000000000000000000000000000000082169050919050565b611901816118cc565b811461190c57600080fd5b50565b60008135905061191e816118f8565b92915050565b60006020828403121561193a576119396118c2565b5b60006119488482850161190f565b91505092915050565b60008115159050919050565b61196681611951565b82525050565b6000602082019050611981600083018461195d565b92915050565b600081519050919050565b600082825260208201905092915050565b60005b838110156119c15780820151818401526020810190506119a6565b60008484015250505050565b6000601f19601f8301169050919050565b60006119e982611987565b6119f38185611992565b9350611a038185602086016119a3565b611a0c816119cd565b840191505092915050565b60006020820190508181036000830152611a3181846119de565b905092915050565b6000819050919050565b611a4c81611a39565b8114611a5757600080fd5b50565b600081359050611a6981611a43565b92915050565b600060208284031215611a8557611a846118c2565b5b6000611a9384828501611a5a565b91505092915050565b600073ffffffffffffffffffffffffffffffffffffffff82169050919050565b6000611ac782611a9c565b9050919050565b611ad781611abc565b82525050565b6000602082019050611af26000830184611ace565b92915050565b611b0181611abc565b8114611b0c57600080fd5b50565b600081359050611b1e81611af8565b92915050565b60008060408385031215611b3b57611b3a6118c2565b5b6000611b4985828601611b0f565b9250506020611b5a85828601611a5a565b9150509250929050565b600080600060608486031215611b7d57611b7c6118c2565b5b6000611b8b86828701611b0f565b9350506020611b9c86828701611b0f565b9250506040611bad86828701611a5a565b9150509250925092565b600060208284031215611bcd57611bcc6118c2565b5b6000611bdb84828501611b0f565b91505092915050565b611bed81611a39565b82525050565b6000602082019050611c086000830184611be4565b92915050565b611c1781611951565b8114611c2257600080fd5b50565b600081359050611c3481611c0e565b92915050565b60008060408385031215611c5157611c506118c2565b5b6000611c5f85828601611b0f565b9250506020611c7085828601611c25565b9150509250929050565b600080fd5b600080fd5b7f4e487b7100000000000000000000000000000000000000000000000000000000600052604160045260246000fd5b611cbc826119cd565b810181811067ffffffffffffffff82111715611cdb57611cda611c84565b5b80604052505050565b6000611cee6118b8565b9050611cfa8282611cb3565b919050565b600067ffffffffffffffff821115611d1a57611d19611c84565b5b611d23826119cd565b9050602081019050919050565b82818337600083830152505050565b6000611d52611d4d84611cff565b611ce4565b905082815260208101848484011115611d6e57611d6d611c7f565b5b611d79848285611d30565b509392505050565b600082601f830112611d9657611d95611c7a565b5b8135611da6848260208601611d3f565b91505092915050565b60008060008060808587031215611dc957611dc86118c2565b5b6000611dd787828801611b0f565b9450506020611de887828801611b0f565b9350506040611df987828801611a5a565b925050606085013567ffffffffffffffff811115611e1a57611e196118c7565b5b611e2687828801611d81565b91505092959194509250565b600067ffffffffffffffff821115611e4d57611e4c611c84565b5b611e56826119cd565b9050602081019050919050565b6000611e76611e7184611e32565b611ce4565b905082815260208101848484011115611e9257611e91611c7f565b5b611e9d848285611d30565b509392505050565b600082601f830112611eba57611eb9611c7a565b5b8135611eca848260208601611e63565b91505092915050565b60008060408385031215611eea57611ee96118c2565b5b6000611ef885828601611b0f565b925050602083013567ffffffffffffffff811115611f1957611f186118c7565b5b611f2585828601611ea5565b9150509250929050565b60008060408385031215611f4657611f456118c2565b5b6000611f5485828601611b0f565b9250506020611f6585828601611b0f565b9150509250929050565b7f4e487b7100000000000000000000000000000000000000000000000000000000600052602260045260246000fd5b60006002820490506001821680611fb657607f821691505b602082108103611fc957611fc8611f6f565b5b50919050565b6000606082019050611fe46000830186611ace565b611ff16020830185611be4565b611ffe6040830184611ace565b949350505050565b7f4e487b7100000000000000000000000000000000000000000000000000000000600052601160045260246000fd5b600061204082611a39565b915061204b83611a39565b925082820390508181111561206357612062612006565b5b92915050565b600061207482611a39565b91507fffffffffffffffffffffffffffffffffffffffffffffffffffffffffffffffff82036120a6576120a5612006565b5b600182019050919050565b600081519050919050565b600082825260208201905092915050565b60006120d8826120b1565b6120e281856120bc565b93506120f28185602086016119a3565b6120fb816119cd565b840191505092915050565b600060808201905061211b6000830187611ace565b6121286020830186611ace565b6121356040830185611be4565b818103606083015261214781846120cd565b905095945050505050565b600081519050612161816118f8565b92915050565b60006020828403121561217d5761217c6118c2565b5b600061218b84828501612152565b91505092915050565b600081905092915050565b60006121aa82611987565b6121b48185612194565b93506121c48185602086016119a3565b80840191505092915050565b60006121dc828561219f565b91506121e8828461219f565b91508190509392505050565b60008190508160005260206000209050919050565b60006020601f8301049050919050565b600082821b905092915050565b6000600883026122567fffffffffffffffffffffffffffffffffffffffffffffffffffffffffffffffff82612219565b6122608683612219565b95508019841693508086168417925050509392505050565b6000819050919050565b600061229d61229861229384611a39565b612278565b611a39565b9050919050565b6000819050919050565b6122b783612282565b6122cb6122c3826122a4565b848454612226565b825550505050565b600090565b6122e06122d3565b6122eb8184846122ae565b505050565b5b8181101561230f576123046000826122d8565b6001810190506122f1565b5050565b601f82111561235457612325816121f4565b61232e84612209565b8101602085101561233d578190505b61235161234985612209565b8301826122f0565b50505b505050565b600082821c905092915050565b600061237760001984600802612359565b1980831691505092915050565b60006123908383612366565b9150826002028217905092915050565b6123a982611987565b67ffffffffffffffff8111156123c2576123c1611c84565b5b6123cc8254611f9e565b6123d7828285612313565b600060209050601f83116001811461240a57600084156123f8578287015190505b6124028582612384565b86555061246a565b601f198416612418866121f4565b60005b828110156124405784890151825560018201915060208501945060208101905061241b565b8683101561245d5784890151612459601f891682612366565b8355505b6001600288020188555050505b505050505050565b60006040820190506124876000830185611ace565b6124946020830184611be4565b9392505050565b7f4e487b7100000000000000000000000000000000000000000000000000000000600052601260045260246000fdfea2646970667358221220de3eb3e1add900e2b413181aa42eb367e9de41458cc4c1ab26cd919848f380de64736f6c63430008180033",
  "linkReferences": {},
  "deployedLinkReferences": {}
}