{
  "_format": "hh-sol-artifact-1",
  "contractName": "NexToken",
  "sourceName": "contracts/NexToken.sol",
  "abi": [
    {
      "inputs": [],
      "stateMutability": "nonpayable",
      "type": "constructor"
    },
    {
      "inputs": [
        {
          "internalType": "address",
          "name": "spender",
          "type": "address"
        },
        {
          "internalType": "uint256",
          "name": "allowance",
          "type": "uint256"
        },
        {
          "internalType": "uint256",
          "name": "needed",
          "type": "uint256"
        }
      ],
      "name": "ERC20InsufficientAllowance",
      "type": "error"
    },
    {
      "inputs": [
        {
          "internalType": "address",
          "name": "sender",
          "type": "address"
        },
        {
          "internalType": "uint256",
          "name": "balance",
          "type": "uint256"
        },
        {
          "internalType": "uint256",
          "name": "needed",
          "type": "uint256"
        }
      ],
      "name": "ERC20InsufficientBalance",
      "type": "error"
    },
    {
      "inputs": [
        {
          "internalType": "address",
          "name": "approver",
          "type": "address"
        }
      ],
      "name": "ERC20InvalidApprover",
      "type": "error"
    },
    {
      "inputs": [
        {
          "internalType": "address",
          "name": "receiver",
          "type": "address"
        }
      ],
      "name": "ERC20InvalidReceiver",
      "type": "error"
    },
    {
      "inputs": [
        {
          "internalType": "address",
          "name": "sender",
          "type": "address"
        }
      ],
      "name": "ERC20InvalidSender",
      "type": "error"
    },
    {
      "inputs": [
        {
          "internalType": "address",
          "name": "spender",
          "type": "address"
        }
      ],
      "name": "ERC20InvalidSpender",
      "type": "error"
    },
    {
      "inputs": [
        {
          "internalType": "address",
          "name": "owner",
          "type": "address"
        }
      ],
      "name": "OwnableInvalidOwner",
      "type": "error"
    },
    {
      "inputs": [
        {
          "internalType": "address",
          "name": "account",
          "type": "address"
        }
      ],
      "name": "OwnableUnauthorizedAccount",
      "type": "error"
    },
    {
      "anonymous": false,
      "inputs": [
        {
          "indexed": true,
          "internalType": "address",
          "name": "owner",
          "type": "address"
        },
        {
          "indexed": true,
          "internalType": "address",
          "name": "spender",
          "type": "address"
        },
        {
          "indexed": false,
          "internalType": "uint256",
          "name": "value",
          "type": "uint256"
        }
      ],
      "name": "Approval",
      "type": "event"
    },
    {
      "anonymous": false,
      "inputs": [
        {
          "indexed": true,
          "internalType": "address",
          "name": "previousOwner",
          "type": "address"
        },
        {
          "indexed": true,
          "internalType": "address",
          "name": "newOwner",
          "type": "address"
        }
      ],
      "name": "OwnershipTransferred",
      "type": "event"
    },
    {
      "anonymous": false,
      "inputs": [
        {
          "indexed": true,
          "internalType": "address",
          "name": "from",
          "type": "address"
        },
        {
          "indexed": true,
          "internalType": "address",
          "name": "to",
          "type": "address"
        },
        {
          "indexed": false,
          "internalType": "uint256",
          "name": "value",
          "type": "uint256"
        }
      ],
      "name": "Transfer",
      "type": "event"
    },
    {
      "inputs": [
        {
          "internalType": "address",
          "name": "owner",
          "type": "address"
        },
        {
          "internalType": "address",
          "name": "spender",
          "type": "address"
        }
      ],
      "name": "allowance",
      "outputs": [
        {
          "internalType": "uint256",
          "name": "",
          "type": "uint256"
        }
      ],
      "stateMutability": "view",
      "type": "function"
    },
    {
      "inputs": [
        {
          "internalType": "address",
          "name": "spender",
          "type": "address"
        },
        {
          "internalType": "uint256",
          "name": "value",
          "type": "uint256"
        }
      ],
      "name": "approve",
      "outputs": [
        {
          "internalType": "bool",
          "name": "",
          "type": "bool"
        }
      ],
      "stateMutability": "nonpayable",
      "type": "function"
    },
    {
      "inputs": [
        {
          "internalType": "address",
          "name": "account",
          "type": "address"
        }
      ],
      "name": "balanceOf",
      "outputs": [
        {
          "internalType": "uint256",
          "name": "",
          "type": "uint256"
        }
      ],
      "stateMutability": "view",
      "type": "function"
    },
    {
      "inputs": [
        {
          "internalType": "address",
          "name": "to",
          "type": "address"
        },
        {
          "internalType": "uint256",
          "name": "amount",
          "type": "uint256"
        }
      ],
      "name": "burnToken",
      "outputs": [],
      "stateMutability": "nonpayable",
      "type": "function"
    },
    {
      "inputs": [
        {
          "internalType": "address",
          "name": "to",
          "type": "address"
        },
        {
          "internalType": "uint256",
          "name": "amount",
          "type": "uint256"
        }
      ],
      "name": "buyToken",
      "outputs": [],
      "stateMutability": "nonpayable",
      "type": "function"
    },
    {
      "inputs": [],
      "name": "decimals",
      "outputs": [
        {
          "internalType": "uint8",
          "name": "",
          "type": "uint8"
        }
      ],
      "stateMutability": "view",
      "type": "function"
    },
    {
      "inputs": [],
      "name": "name",
      "outputs": [
        {
          "internalType": "string",
          "name": "",
          "type": "string"
        }
      ],
      "stateMutability": "view",
      "type": "function"
    },
    {
      "inputs": [],
      "name": "owner",
      "outputs": [
        {
          "internalType": "address",
          "name": "",
          "type": "address"
        }
      ],
      "stateMutability": "view",
      "type": "function"
    },
    {
      "inputs": [],
      "name": "renounceOwnership",
      "outputs": [],
      "stateMutability": "nonpayable",
      "type": "function"
    },
    {
      "inputs": [
        {
          "internalType": "address",
          "name": "to",
          "type": "address"
        },
        {
          "internalType": "uint256",
          "name": "amount",
          "type": "uint256"
        }
      ],
      "name": "sellToken",
      "outputs": [],
      "stateMutability": "nonpayable",
      "type": "function"
    },
    {
      "inputs": [],
      "name": "symbol",
      "outputs": [
        {
          "internalType": "string",
          "name": "",
          "type": "string"
        }
      ],
      "stateMutability": "view",
      "type": "function"
    },
    {
      "inputs": [],
      "name": "totalSupply",
      "outputs": [
        {
          "internalType": "uint256",
          "name": "",
          "type": "uint256"
        }
      ],
      "stateMutability": "view",
      "type": "function"
    },
    {
      "inputs": [
        {
          "internalType": "address",
          "name": "to",
          "type": "address"
        },
        {
          "internalType": "uint256",
          "name": "value",
          "type": "uint256"
        }
      ],
      "name": "transfer",
      "outputs": [
        {
          "internalType": "bool",
          "name": "",
          "type": "bool"
        }
      ],
      "stateMutability": "nonpayable",
      "type": "function"
    },
    {
      "inputs": [
        {
          "internalType": "address",
          "name": "from",
          "type": "address"
        },
        {
          "internalType": "address",
          "name": "to",
          "type": "address"
        },
        {
          "internalType": "uint256",
          "name": "value",
          "type": "uint256"
        }
      ],
      "name": "transferFrom",
      "outputs": [
        {
          "internalType": "bool",
          "name": "",
          "type": "bool"
        }
      ],
      "stateMutability": "nonpayable",
      "type": "function"
    },
    {
      "inputs": [
        {
          "internalType": "address",
          "name": "newOwner",
          "type": "address"
        }
      ],
      "name": "transferOwnership",
      "outputs": [],
      "stateMutability": "nonpayable",
      "type": "function"
    }
  ],
  "bytecode": "0x60806040523480156200001157600080fd5b50336040518060400160405280600781526020017f4e657862697a6e000000000000000000000000000000000000000000000000008152506040518060400160405280600381526020017f4e45580000000000000000000000000000000000000000000000000000000000815250816003908162000090919062000472565b508060049081620000a2919062000472565b505050600073ffffffffffffffffffffffffffffffffffffffff168173ffffffffffffffffffffffffffffffffffffffff16036200011a5760006040517f1e4fbdf70000000000000000000000000000000000000000000000000000000081526004016200011191906200059e565b60405180910390fd5b6200012b816200013260201b60201c565b50620005bb565b6000600560009054906101000a900473ffffffffffffffffffffffffffffffffffffffff16905081600560006101000a81548173ffffffffffffffffffffffffffffffffffffffff021916908373ffffffffffffffffffffffffffffffffffffffff1602179055508173ffffffffffffffffffffffffffffffffffffffff168173ffffffffffffffffffffffffffffffffffffffff167f8be0079c531659141344cd1fd0a4f28419497f9722a3daafe3b4186f6b6457e060405160405180910390a35050565b600081519050919050565b7f4e487b7100000000000000000000000000000000000000000000000000000000600052604160045260246000fd5b7f4e487b7100000000000000000000000000000000000000000000000000000000600052602260045260246000fd5b600060028204905060018216806200027a57607f821691505b60208210810362000290576200028f62000232565b5b50919050565b60008190508160005260206000209050919050565b60006020601f8301049050919050565b600082821b905092915050565b600060088302620002fa7fffffffffffffffffffffffffffffffffffffffffffffffffffffffffffffffff82620002bb565b620003068683620002bb565b95508019841693508086168417925050509392505050565b6000819050919050565b6000819050919050565b6000620003536200034d62000347846200031e565b62000328565b6200031e565b9050919050565b6000819050919050565b6200036f8362000332565b620003876200037e826200035a565b848454620002c8565b825550505050565b600090565b6200039e6200038f565b620003ab81848462000364565b505050565b5b81811015620003d357620003c760008262000394565b600181019050620003b1565b5050565b601f8211156200042257620003ec8162000296565b620003f784620002ab565b8101602085101562000407578190505b6200041f6200041685620002ab565b830182620003b0565b50505b505050565b600082821c905092915050565b6000620004476000198460080262000427565b1980831691505092915050565b600062000462838362000434565b9150826002028217905092915050565b6200047d82620001f8565b67ffffffffffffffff81111562000499576200049862000203565b5b620004a5825462000261565b620004b2828285620003d7565b600060209050601f831160018114620004ea5760008415620004d5578287015190505b620004e1858262000454565b86555062000551565b601f198416620004fa8662000296565b60005b828110156200052457848901518255600182019150602085019450602081019050620004fd565b8683101562000544578489015162000540601f89168262000434565b8355505b6001600288020188555050505b505050505050565b600073ffffffffffffffffffffffffffffffffffffffff82169050919050565b6000620005868262000559565b9050919050565b620005988162000579565b82525050565b6000602082019050620005b560008301846200058d565b92915050565b61160f80620005cb6000396000f3fe608060405234801561001057600080fd5b50600436106100f55760003560e01c8063715018a611610097578063d1df306c11610066578063d1df306c14610276578063dd62ed3e14610292578063f2fde38b146102c2578063f464e7db146102de576100f5565b8063715018a6146102005780638da5cb5b1461020a57806395d89b4114610228578063a9059cbb14610246576100f5565b806323b872dd116100d357806323b872dd14610166578063313ce5671461019657806368f8fc10146101b457806370a08231146101d0576100f5565b806306fdde03146100fa578063095ea7b31461011857806318160ddd14610148575b600080fd5b6101026102fa565b60405161010f9190611041565b60405180910390f35b610132600480360381019061012d91906110fc565b61038c565b60405161013f9190611157565b60405180910390f35b6101506103af565b60405161015d9190611181565b60405180910390f35b610180600480360381019061017b919061119c565b6103b9565b60405161018d9190611157565b60405180910390f35b61019e6103e8565b6040516101ab919061120b565b60405180910390f35b6101ce60048036038101906101c991906110fc565b6103f1565b005b6101ea60048036038101906101e59190611226565b610442565b6040516101f79190611181565b60405180910390f35b61020861048a565b005b61021261049e565b60405161021f9190611262565b60405180910390f35b6102306104c8565b60405161023d9190611041565b60405180910390f35b610260600480360381019061025b91906110fc565b61055a565b60405161026d9190611157565b60405180910390f35b610290600480360381019061028b91906110fc565b61057d565b005b6102ac60048036038101906102a7919061127d565b610619565b6040516102b99190611181565b60405180910390f35b6102dc60048036038101906102d79190611226565b6106a0565b005b6102f860048036038101906102f391906110fc565b610726565b005b606060038054610309906112ec565b80601f0160208091040260200160405190810160405280929190818152602001828054610335906112ec565b80156103825780601f1061035757610100808354040283529160200191610382565b820191906000526020600020905b81548152906001019060200180831161036557829003601f168201915b5050505050905090565b6000806103976107c2565b90506103a48185856107ca565b600191505092915050565b6000600254905090565b6000806103c46107c2565b90506103d18582856107dc565b6103dc858585610870565b60019150509392505050565b60006012905090565b60008111610434576040517f08c379a000000000000000000000000000000000000000000000000000000000815260040161042b9061138f565b60405180910390fd5b61043e8282610964565b5050565b60008060008373ffffffffffffffffffffffffffffffffffffffff1673ffffffffffffffffffffffffffffffffffffffff168152602001908152602001600020549050919050565b6104926109e6565b61049c6000610a6d565b565b6000600560009054906101000a900473ffffffffffffffffffffffffffffffffffffffff16905090565b6060600480546104d7906112ec565b80601f0160208091040260200160405190810160405280929190818152602001828054610503906112ec565b80156105505780601f1061052557610100808354040283529160200191610550565b820191906000526020600020905b81548152906001019060200180831161053357829003601f168201915b5050505050905090565b6000806105656107c2565b9050610572818585610870565b600191505092915050565b600081116105c0576040517f08c379a00000000000000000000000000000000000000000000000000000000081526004016105b790611421565b60405180910390fd5b806105ca83610442565b101561060b576040517f08c379a00000000000000000000000000000000000000000000000000000000081526004016106029061148d565b60405180910390fd5b6106158282610b33565b5050565b6000600160008473ffffffffffffffffffffffffffffffffffffffff1673ffffffffffffffffffffffffffffffffffffffff16815260200190815260200160002060008373ffffffffffffffffffffffffffffffffffffffff1673ffffffffffffffffffffffffffffffffffffffff16815260200190815260200160002054905092915050565b6106a86109e6565b600073ffffffffffffffffffffffffffffffffffffffff168173ffffffffffffffffffffffffffffffffffffffff160361071a5760006040517f1e4fbdf70000000000000000000000000000000000000000000000000000000081526004016107119190611262565b60405180910390fd5b61072381610a6d565b50565b60008111610769576040517f08c379a00000000000000000000000000000000000000000000000000000000081526004016107609061151f565b60405180910390fd5b8061077383610442565b10156107b4576040517f08c379a00000000000000000000000000000000000000000000000000000000081526004016107ab9061148d565b60405180910390fd5b6107be8282610b33565b5050565b600033905090565b6107d78383836001610bb5565b505050565b60006107e88484610619565b90507fffffffffffffffffffffffffffffffffffffffffffffffffffffffffffffffff811461086a578181101561085a578281836040517ffb8f41b20000000000000000000000000000000000000000000000000000000081526004016108519392919061153f565b60405180910390fd5b61086984848484036000610bb5565b5b50505050565b600073ffffffffffffffffffffffffffffffffffffffff168373ffffffffffffffffffffffffffffffffffffffff16036108e25760006040517f96c6fd1e0000000000000000000000000000000000000000000000000000000081526004016108d99190611262565b60405180910390fd5b600073ffffffffffffffffffffffffffffffffffffffff168273ffffffffffffffffffffffffffffffffffffffff16036109545760006040517fec442f0500000000000000000000000000000000000000000000000000000000815260040161094b9190611262565b60405180910390fd5b61095f838383610d8c565b505050565b600073ffffffffffffffffffffffffffffffffffffffff168273ffffffffffffffffffffffffffffffffffffffff16036109d65760006040517fec442f050000000000000000000000000000000000000000000000000000000081526004016109cd9190611262565b60405180910390fd5b6109e260008383610d8c565b5050565b6109ee6107c2565b73ffffffffffffffffffffffffffffffffffffffff16610a0c61049e565b73ffffffffffffffffffffffffffffffffffffffff1614610a6b57610a2f6107c2565b6040517f118cdaa7000000000000000000000000000000000000000000000000000000008152600401610a629190611262565b60405180910390fd5b565b6000600560009054906101000a900473ffffffffffffffffffffffffffffffffffffffff16905081600560006101000a81548173ffffffffffffffffffffffffffffffffffffffff021916908373ffffffffffffffffffffffffffffffffffffffff1602179055508173ffffffffffffffffffffffffffffffffffffffff168173ffffffffffffffffffffffffffffffffffffffff167f8be0079c531659141344cd1fd0a4f28419497f9722a3daafe3b4186f6b6457e060405160405180910390a35050565b600073ffffffffffffffffffffffffffffffffffffffff168273ffffffffffffffffffffffffffffffffffffffff1603610ba55760006040517f96c6fd1e000000000000000000000000000000000000000000000000000000008152600401610b9c9190611262565b60405180910390fd5b610bb182600083610d8c565b5050565b600073ffffffffffffffffffffffffffffffffffffffff168473ffffffffffffffffffffffffffffffffffffffff1603610c275760006040517fe602df05000000000000000000000000000000000000000000000000000000008152600401610c1e9190611262565b60405180910390fd5b600073ffffffffffffffffffffffffffffffffffffffff168373ffffffffffffffffffffffffffffffffffffffff1603610c995760006040517f94280d62000000000000000000000000000000000000000000000000000000008152600401610c909190611262565b60405180910390fd5b81600160008673ffffffffffffffffffffffffffffffffffffffff1673ffffffffffffffffffffffffffffffffffffffff16815260200190815260200160002060008573ffffffffffffffffffffffffffffffffffffffff1673ffffffffffffffffffffffffffffffffffffffff168152602001908152602001600020819055508015610d86578273ffffffffffffffffffffffffffffffffffffffff168473ffffffffffffffffffffffffffffffffffffffff167f8c5be1e5ebec7d5bd14f71427d1e84f3dd0314c0f7b2291e5b200ac8c7c3b92584604051610d7d9190611181565b60405180910390a35b50505050565b600073ffffffffffffffffffffffffffffffffffffffff168373ffffffffffffffffffffffffffffffffffffffff1603610dde578060026000828254610dd291906115a5565b92505081905550610eb1565b60008060008573ffffffffffffffffffffffffffffffffffffffff1673ffffffffffffffffffffffffffffffffffffffff16815260200190815260200160002054905081811015610e6a578381836040517fe450d38c000000000000000000000000000000000000000000000000000000008152600401610e619392919061153f565b60405180910390fd5b8181036000808673ffffffffffffffffffffffffffffffffffffffff1673ffffffffffffffffffffffffffffffffffffffff16815260200190815260200160002081905550505b600073ffffffffffffffffffffffffffffffffffffffff168273ffffffffffffffffffffffffffffffffffffffff1603610efa5780600260008282540392505081905550610f47565b806000808473ffffffffffffffffffffffffffffffffffffffff1673ffffffffffffffffffffffffffffffffffffffff168152602001908152602001600020600082825401925050819055505b8173ffffffffffffffffffffffffffffffffffffffff168373ffffffffffffffffffffffffffffffffffffffff167fddf252ad1be2c89b69c2b068fc378daa952ba7f163c4a11628f55a4df523b3ef83604051610fa49190611181565b60405180910390a3505050565b600081519050919050565b600082825260208201905092915050565b60005b83811015610feb578082015181840152602081019050610fd0565b60008484015250505050565b6000601f19601f8301169050919050565b600061101382610fb1565b61101d8185610fbc565b935061102d818560208601610fcd565b61103681610ff7565b840191505092915050565b6000602082019050818103600083015261105b8184611008565b905092915050565b600080fd5b600073ffffffffffffffffffffffffffffffffffffffff82169050919050565b600061109382611068565b9050919050565b6110a381611088565b81146110ae57600080fd5b50565b6000813590506110c08161109a565b92915050565b6000819050919050565b6110d9816110c6565b81146110e457600080fd5b50565b6000813590506110f6816110d0565b92915050565b6000806040838503121561111357611112611063565b5b6000611121858286016110b1565b9250506020611132858286016110e7565b9150509250929050565b60008115159050919050565b6111518161113c565b82525050565b600060208201905061116c6000830184611148565b92915050565b61117b816110c6565b82525050565b60006020820190506111966000830184611172565b92915050565b6000806000606084860312156111b5576111b4611063565b5b60006111c3868287016110b1565b93505060206111d4868287016110b1565b92505060406111e5868287016110e7565b9150509250925092565b600060ff82169050919050565b611205816111ef565b82525050565b600060208201905061122060008301846111fc565b92915050565b60006020828403121561123c5761123b611063565b5b600061124a848285016110b1565b91505092915050565b61125c81611088565b82525050565b60006020820190506112776000830184611253565b92915050565b6000806040838503121561129457611293611063565b5b60006112a2858286016110b1565b92505060206112b3858286016110b1565b9150509250929050565b7f4e487b7100000000000000000000000000000000000000000000000000000000600052602260045260246000fd5b6000600282049050600182168061130457607f821691505b602082108103611317576113166112bd565b5b50919050565b7f596f75206e65656420746f206d696e74206174206c65617374203120746f6b6560008201527f6e00000000000000000000000000000000000000000000000000000000000000602082015250565b6000611379602183610fbc565b91506113848261131d565b604082019050919050565b600060208201905081810360008301526113a88161136c565b9050919050565b7f596f75206e65656420746f206275726e206174206c65617374203120746f6b6560008201527f6e00000000000000000000000000000000000000000000000000000000000000602082015250565b600061140b602183610fbc565b9150611416826113af565b604082019050919050565b6000602082019050818103600083015261143a816113fe565b9050919050565b7f4e6f7420656e6f75676820746f6b656e7320746f2073656c6c00000000000000600082015250565b6000611477601983610fbc565b915061148282611441565b602082019050919050565b600060208201905081810360008301526114a68161146a565b9050919050565b7f596f75206e65656420746f2073656c6c206174206c65617374203120746f6b6560008201527f6e00000000000000000000000000000000000000000000000000000000000000602082015250565b6000611509602183610fbc565b9150611514826114ad565b604082019050919050565b60006020820190508181036000830152611538816114fc565b9050919050565b60006060820190506115546000830186611253565b6115616020830185611172565b61156e6040830184611172565b949350505050565b7f4e487b7100000000000000000000000000000000000000000000000000000000600052601160045260246000fd5b60006115b0826110c6565b91506115bb836110c6565b92508282019050808211156115d3576115d2611576565b5b9291505056fea264697066735822122071d69ca15b42029469fcabdc9bc542f11ccdc4386eea193f732cb7b6d4d3d7fd64736f6c63430008180033",
  "linkReferences": {},
  "deployedLinkReferences": {}
}