{
  "_format": "hh-sol-artifact-1",
  "contractName": "Auction",
  "sourceName": "contracts/Auction.sol",
  "abi": [
    {
      "inputs": [
        {
          "internalType": "address",
          "name": "_nexToken",
          "type": "address"
        },
        {
          "internalType": "address",
          "name": "_nexNFT",
          "type": "address"
        }
      ],
      "stateMutability": "nonpayable",
      "type": "constructor"
    },
    {
      "inputs": [],
      "name": "highestBid",
      "outputs": [
        {
          "internalType": "uint256",
          "name": "",
          "type": "uint256"
        }
      ],
      "stateMutability": "view",
      "type": "function"
    },
    {
      "inputs": [],
      "name": "mintNFT",
      "outputs": [],
      "stateMutability": "nonpayable",
      "type": "function"
    },
    {
      "inputs": [],
      "name": "nexNFT",
      "outputs": [
        {
          "internalType": "contract nftContract",
          "name": "",
          "type": "address"
        }
      ],
      "stateMutability": "view",
      "type": "function"
    },
    {
      "inputs": [],
      "name": "nexToken",
      "outputs": [
        {
          "internalType": "contract tokenContract",
          "name": "",
          "type": "address"
        }
      ],
      "stateMutability": "view",
      "type": "function"
    },
    {
      "inputs": [
        {
          "internalType": "address",
          "name": "",
          "type": "address"
        },
        {
          "internalType": "address",
          "name": "",
          "type": "address"
        },
        {
          "internalType": "uint256",
          "name": "",
          "type": "uint256"
        },
        {
          "internalType": "bytes",
          "name": "",
          "type": "bytes"
        }
      ],
      "name": "onERC721Received",
      "outputs": [
        {
          "internalType": "bytes4",
          "name": "",
          "type": "bytes4"
        }
      ],
      "stateMutability": "pure",
      "type": "function"
    },
    {
      "inputs": [],
      "name": "owner",
      "outputs": [
        {
          "internalType": "address",
          "name": "",
          "type": "address"
        }
      ],
      "stateMutability": "view",
      "type": "function"
    },
    {
      "inputs": [
        {
          "internalType": "uint256",
          "name": "",
          "type": "uint256"
        }
      ],
      "name": "participants",
      "outputs": [
        {
          "internalType": "address",
          "name": "",
          "type": "address"
        }
      ],
      "stateMutability": "view",
      "type": "function"
    },
    {
      "inputs": [],
      "name": "price",
      "outputs": [
        {
          "internalType": "uint256",
          "name": "",
          "type": "uint256"
        }
      ],
      "stateMutability": "view",
      "type": "function"
    },
    {
      "inputs": [
        {
          "internalType": "uint256",
          "name": "amount",
          "type": "uint256"
        }
      ],
      "name": "purchaseTokens",
      "outputs": [],
      "stateMutability": "payable",
      "type": "function"
    },
    {
      "inputs": [
        {
          "internalType": "string",
          "name": "_tokenUri",
          "type": "string"
        }
      ],
      "name": "register",
      "outputs": [],
      "stateMutability": "nonpayable",
      "type": "function"
    },
    {
      "inputs": [
        {
          "internalType": "uint256",
          "name": "amount",
          "type": "uint256"
        }
      ],
      "name": "sellTokens",
      "outputs": [],
      "stateMutability": "nonpayable",
      "type": "function"
    },
    {
      "inputs": [
        {
          "internalType": "uint256",
          "name": "",
          "type": "uint256"
        }
      ],
      "name": "tokenUris",
      "outputs": [
        {
          "internalType": "string",
          "name": "",
          "type": "string"
        }
      ],
      "stateMutability": "view",
      "type": "function"
    },
    {
      "inputs": [],
      "name": "winner",
      "outputs": [
        {
          "internalType": "address",
          "name": "",
          "type": "address"
        }
      ],
      "stateMutability": "view",
      "type": "function"
    },
    {
      "inputs": [
        {
          "internalType": "address",
          "name": "_winner",
          "type": "address"
        },
        {
          "internalType": "uint256",
          "name": "_highestBid",
          "type": "uint256"
        }
      ],
      "name": "winnerDetails",
      "outputs": [],
      "stateMutability": "nonpayable",
      "type": "function"
    }
  ],
  "bytecode": "0x60806040523480156200001157600080fd5b5060405162001bbb38038062001bbb8339818101604052810190620000379190620001fc565b33600260006101000a81548173ffffffffffffffffffffffffffffffffffffffff021916908373ffffffffffffffffffffffffffffffffffffffff160217905550816000806101000a81548173ffffffffffffffffffffffffffffffffffffffff021916908373ffffffffffffffffffffffffffffffffffffffff16021790555080600160006101000a81548173ffffffffffffffffffffffffffffffffffffffff021916908373ffffffffffffffffffffffffffffffffffffffff160217905550600160009054906101000a900473ffffffffffffffffffffffffffffffffffffffff1673ffffffffffffffffffffffffffffffffffffffff1663d204c45e306040518263ffffffff1660e01b8152600401620001569190620002b5565b600060405180830381600087803b1580156200017157600080fd5b505af115801562000186573d6000803e3d6000fd5b505050505050620002e7565b600080fd5b600073ffffffffffffffffffffffffffffffffffffffff82169050919050565b6000620001c48262000197565b9050919050565b620001d681620001b7565b8114620001e257600080fd5b50565b600081519050620001f681620001cb565b92915050565b6000806040838503121562000216576200021562000192565b5b60006200022685828601620001e5565b92505060206200023985828601620001e5565b9150509250929050565b6200024e81620001b7565b82525050565b600082825260208201905092915050565b7f68656c6c6f000000000000000000000000000000000000000000000000000000600082015250565b60006200029d60058362000254565b9150620002aa8262000265565b602082019050919050565b6000604082019050620002cc600083018462000243565b8181036020830152620002df816200028e565b905092915050565b6118c480620002f76000396000f3fe6080604052600436106100dd5760003560e01c8063a035b1fe1161007f578063d57bde7911610059578063d57bde791461029f578063d6ff0cd8146102ca578063dfbf53ae146102f5578063f2c298be14610320576100dd565b8063a035b1fe1461020c578063a2375cc014610237578063ae882b6514610262576100dd565b8063436e26fc116100bb578063436e26fc146101735780636c11bcd31461019c5780637b97008d146101c55780638da5cb5b146101e1576100dd565b806314f710fe146100e2578063150b7a02146100f957806335c1d34914610136575b600080fd5b3480156100ee57600080fd5b506100f7610349565b005b34801561010557600080fd5b50610120600480360381019061011b9190610f27565b61082f565b60405161012d9190610fea565b60405180910390f35b34801561014257600080fd5b5061015d60048036038101906101589190611005565b610844565b60405161016a9190611041565b60405180910390f35b34801561017f57600080fd5b5061019a6004803603810190610195919061105c565b610883565b005b3480156101a857600080fd5b506101c360048036038101906101be9190611005565b61095f565b005b6101df60048036038101906101da9190611005565b610a49565b005b3480156101ed57600080fd5b506101f6610b2f565b6040516102039190611041565b60405180910390f35b34801561021857600080fd5b50610221610b55565b60405161022e91906110ab565b60405180910390f35b34801561024357600080fd5b5061024c610b61565b6040516102599190611125565b60405180910390f35b34801561026e57600080fd5b5061028960048036038101906102849190611005565b610b85565b60405161029691906111d0565b60405180910390f35b3480156102ab57600080fd5b506102b4610c31565b6040516102c191906110ab565b60405180910390f35b3480156102d657600080fd5b506102df610c37565b6040516102ec9190611213565b60405180910390f35b34801561030157600080fd5b5061030a610c5d565b6040516103179190611041565b60405180910390f35b34801561032c57600080fd5b506103476004803603810190610342919061135e565b610c83565b005b600460009054906101000a900473ffffffffffffffffffffffffffffffffffffffff1673ffffffffffffffffffffffffffffffffffffffff163373ffffffffffffffffffffffffffffffffffffffff16146103a357600080fd5b6000600354036103b257600080fd5b60008054906101000a900473ffffffffffffffffffffffffffffffffffffffff1673ffffffffffffffffffffffffffffffffffffffff1663d1df306c336003546040518363ffffffff1660e01b815260040161040f9291906113a7565b600060405180830381600087803b15801561042957600080fd5b505af115801561043d573d6000803e3d6000fd5b5050505060008060058054905090505b808210156104e95760058281548110610469576104686113d0565b5b9060005260206000200160009054906101000a900473ffffffffffffffffffffffffffffffffffffffff1673ffffffffffffffffffffffffffffffffffffffff16600460009054906101000a900473ffffffffffffffffffffffffffffffffffffffff1673ffffffffffffffffffffffffffffffffffffffff160361044d575b6000600160009054906101000a900473ffffffffffffffffffffffffffffffffffffffff1673ffffffffffffffffffffffffffffffffffffffff166392d21b916040518163ffffffff1660e01b8152600401602060405180830381865afa158015610558573d6000803e3d6000fd5b505050506040513d601f19601f8201168201806040525081019061057c9190611414565b9050600160009054906101000a900473ffffffffffffffffffffffffffffffffffffffff1673ffffffffffffffffffffffffffffffffffffffff166342966c68826040518263ffffffff1660e01b81526004016105d991906110ab565b600060405180830381600087803b1580156105f357600080fd5b505af1158015610607573d6000803e3d6000fd5b50505050600060068481548110610621576106206113d0565b5b90600052602060002001805461063690611470565b80601f016020809104026020016040519081016040528092919081815260200182805461066290611470565b80156106af5780601f10610684576101008083540402835291602001916106af565b820191906000526020600020905b81548152906001019060200180831161069257829003601f168201915b50505050509050600160009054906101000a900473ffffffffffffffffffffffffffffffffffffffff1673ffffffffffffffffffffffffffffffffffffffff1663d204c45e30836040518363ffffffff1660e01b81526004016107139291906114a1565b600060405180830381600087803b15801561072d57600080fd5b505af1158015610741573d6000803e3d6000fd5b50505050600260009054906101000a900473ffffffffffffffffffffffffffffffffffffffff1673ffffffffffffffffffffffffffffffffffffffff166108fc67016345785d8a00006003546107979190611500565b9081150290604051600060405180830381858888f193505050501580156107c2573d6000803e3d6000fd5b506000600460006101000a81548173ffffffffffffffffffffffffffffffffffffffff021916908373ffffffffffffffffffffffffffffffffffffffff16021790555060006003819055506005600061081b9190610d57565b600660006108299190610d78565b50505050565b600063150b7a0260e01b905095945050505050565b6005818154811061085457600080fd5b906000526020600020016000915054906101000a900473ffffffffffffffffffffffffffffffffffffffff1681565b3373ffffffffffffffffffffffffffffffffffffffff16600260009054906101000a900473ffffffffffffffffffffffffffffffffffffffff1673ffffffffffffffffffffffffffffffffffffffff1614610913576040517f08c379a000000000000000000000000000000000000000000000000000000000815260040161090a9061158e565b60405180910390fd5b81600460006101000a81548173ffffffffffffffffffffffffffffffffffffffff021916908373ffffffffffffffffffffffffffffffffffffffff160217905550806003819055505050565b60008054906101000a900473ffffffffffffffffffffffffffffffffffffffff1673ffffffffffffffffffffffffffffffffffffffff1663f464e7db33836040518363ffffffff1660e01b81526004016109ba9291906113a7565b600060405180830381600087803b1580156109d457600080fd5b505af11580156109e8573d6000803e3d6000fd5b505050503373ffffffffffffffffffffffffffffffffffffffff166108fc8267016345785d8a0000610a1a9190611500565b9081150290604051600060405180830381858888f19350505050158015610a45573d6000803e3d6000fd5b5050565b8067016345785d8a0000610a5d9190611500565b341015610a9f576040517f08c379a0000000000000000000000000000000000000000000000000000000008152600401610a96906115fa565b60405180910390fd5b60008054906101000a900473ffffffffffffffffffffffffffffffffffffffff1673ffffffffffffffffffffffffffffffffffffffff166368f8fc1033836040518363ffffffff1660e01b8152600401610afa9291906113a7565b600060405180830381600087803b158015610b1457600080fd5b505af1158015610b28573d6000803e3d6000fd5b5050505050565b600260009054906101000a900473ffffffffffffffffffffffffffffffffffffffff1681565b67016345785d8a000081565b60008054906101000a900473ffffffffffffffffffffffffffffffffffffffff1681565b60068181548110610b9557600080fd5b906000526020600020016000915090508054610bb090611470565b80601f0160208091040260200160405190810160405280929190818152602001828054610bdc90611470565b8015610c295780601f10610bfe57610100808354040283529160200191610c29565b820191906000526020600020905b815481529060010190602001808311610c0c57829003601f168201915b505050505081565b60035481565b600160009054906101000a900473ffffffffffffffffffffffffffffffffffffffff1681565b600460009054906101000a900473ffffffffffffffffffffffffffffffffffffffff1681565b600073ffffffffffffffffffffffffffffffffffffffff163373ffffffffffffffffffffffffffffffffffffffff1603610cbc57600080fd5b6005339080600181540180825580915050600190039060005260206000200160009091909190916101000a81548173ffffffffffffffffffffffffffffffffffffffff021916908373ffffffffffffffffffffffffffffffffffffffff160217905550600681908060018154018082558091505060019003906000526020600020016000909190919091509081610d5391906117bc565b5050565b5080546000825590600052602060002090810190610d759190610d99565b50565b5080546000825590600052602060002090810190610d969190610db6565b50565b5b80821115610db2576000816000905550600101610d9a565b5090565b5b80821115610dd65760008181610dcd9190610dda565b50600101610db7565b5090565b508054610de690611470565b6000825580601f10610df85750610e17565b601f016020900490600052602060002090810190610e169190610d99565b5b50565b6000604051905090565b600080fd5b600080fd5b600073ffffffffffffffffffffffffffffffffffffffff82169050919050565b6000610e5982610e2e565b9050919050565b610e6981610e4e565b8114610e7457600080fd5b50565b600081359050610e8681610e60565b92915050565b6000819050919050565b610e9f81610e8c565b8114610eaa57600080fd5b50565b600081359050610ebc81610e96565b92915050565b600080fd5b600080fd5b600080fd5b60008083601f840112610ee757610ee6610ec2565b5b8235905067ffffffffffffffff811115610f0457610f03610ec7565b5b602083019150836001820283011115610f2057610f1f610ecc565b5b9250929050565b600080600080600060808688031215610f4357610f42610e24565b5b6000610f5188828901610e77565b9550506020610f6288828901610e77565b9450506040610f7388828901610ead565b935050606086013567ffffffffffffffff811115610f9457610f93610e29565b5b610fa088828901610ed1565b92509250509295509295909350565b60007fffffffff0000000000000000000000000000000000000000000000000000000082169050919050565b610fe481610faf565b82525050565b6000602082019050610fff6000830184610fdb565b92915050565b60006020828403121561101b5761101a610e24565b5b600061102984828501610ead565b91505092915050565b61103b81610e4e565b82525050565b60006020820190506110566000830184611032565b92915050565b6000806040838503121561107357611072610e24565b5b600061108185828601610e77565b925050602061109285828601610ead565b9150509250929050565b6110a581610e8c565b82525050565b60006020820190506110c0600083018461109c565b92915050565b6000819050919050565b60006110eb6110e66110e184610e2e565b6110c6565b610e2e565b9050919050565b60006110fd826110d0565b9050919050565b600061110f826110f2565b9050919050565b61111f81611104565b82525050565b600060208201905061113a6000830184611116565b92915050565b600081519050919050565b600082825260208201905092915050565b60005b8381101561117a57808201518184015260208101905061115f565b60008484015250505050565b6000601f19601f8301169050919050565b60006111a282611140565b6111ac818561114b565b93506111bc81856020860161115c565b6111c581611186565b840191505092915050565b600060208201905081810360008301526111ea8184611197565b905092915050565b60006111fd826110f2565b9050919050565b61120d816111f2565b82525050565b60006020820190506112286000830184611204565b92915050565b600080fd5b7f4e487b7100000000000000000000000000000000000000000000000000000000600052604160045260246000fd5b61126b82611186565b810181811067ffffffffffffffff8211171561128a57611289611233565b5b80604052505050565b600061129d610e1a565b90506112a98282611262565b919050565b600067ffffffffffffffff8211156112c9576112c8611233565b5b6112d282611186565b9050602081019050919050565b82818337600083830152505050565b60006113016112fc846112ae565b611293565b90508281526020810184848401111561131d5761131c61122e565b5b6113288482856112df565b509392505050565b600082601f83011261134557611344610ec2565b5b81356113558482602086016112ee565b91505092915050565b60006020828403121561137457611373610e24565b5b600082013567ffffffffffffffff81111561139257611391610e29565b5b61139e84828501611330565b91505092915050565b60006040820190506113bc6000830185611032565b6113c9602083018461109c565b9392505050565b7f4e487b7100000000000000000000000000000000000000000000000000000000600052603260045260246000fd5b60008151905061140e81610e96565b92915050565b60006020828403121561142a57611429610e24565b5b6000611438848285016113ff565b91505092915050565b7f4e487b7100000000000000000000000000000000000000000000000000000000600052602260045260246000fd5b6000600282049050600182168061148857607f821691505b60208210810361149b5761149a611441565b5b50919050565b60006040820190506114b66000830185611032565b81810360208301526114c88184611197565b90509392505050565b7f4e487b7100000000000000000000000000000000000000000000000000000000600052601160045260246000fd5b600061150b82610e8c565b915061151683610e8c565b925082820261152481610e8c565b9150828204841483151761153b5761153a6114d1565b5b5092915050565b7f796f7520617265206e6f7420746865206f776e65722100000000000000000000600082015250565b600061157860168361114b565b915061158382611542565b602082019050919050565b600060208201905081810360008301526115a78161156b565b9050919050565b7f4e6f7420656e6f7567682065746865722073656e740000000000000000000000600082015250565b60006115e460158361114b565b91506115ef826115ae565b602082019050919050565b60006020820190508181036000830152611613816115d7565b9050919050565b60008190508160005260206000209050919050565b60006020601f8301049050919050565b600082821b905092915050565b60006008830261167c7fffffffffffffffffffffffffffffffffffffffffffffffffffffffffffffffff8261163f565b611686868361163f565b95508019841693508086168417925050509392505050565b60006116b96116b46116af84610e8c565b6110c6565b610e8c565b9050919050565b6000819050919050565b6116d38361169e565b6116e76116df826116c0565b84845461164c565b825550505050565b600090565b6116fc6116ef565b6117078184846116ca565b505050565b5b8181101561172b576117206000826116f4565b60018101905061170d565b5050565b601f821115611770576117418161161a565b61174a8461162f565b81016020851015611759578190505b61176d6117658561162f565b83018261170c565b50505b505050565b600082821c905092915050565b600061179360001984600802611775565b1980831691505092915050565b60006117ac8383611782565b9150826002028217905092915050565b6117c582611140565b67ffffffffffffffff8111156117de576117dd611233565b5b6117e88254611470565b6117f382828561172f565b600060209050601f8311600181146118265760008415611814578287015190505b61181e85826117a0565b865550611886565b601f1984166118348661161a565b60005b8281101561185c57848901518255600182019150602085019450602081019050611837565b868310156118795784890151611875601f891682611782565b8355505b6001600288020188555050505b50505050505056fea26469706673582212205d04c9a0b2fbf1c00e97ad40f1cbff3fc543b0ebd04d9b1a030d65e94b9660b364736f6c63430008180033",
  "linkReferences": {},
  "deployedLinkReferences": {}
}